{
  "contracts/NFTflow.sol": {
    "NFTFLOW": {
      "abi": [
        {
          "inputs": [],
          "stateMutability": "nonpayable",
          "type": "constructor"
        },
        {
          "anonymous": false,
          "inputs": [
            {
              "indexed": true,
              "internalType": "address",
              "name": "owner",
              "type": "address"
            },
            {
              "indexed": true,
              "internalType": "address",
              "name": "approved",
              "type": "address"
            },
            {
              "indexed": true,
              "internalType": "uint256",
              "name": "tokenId",
              "type": "uint256"
            }
          ],
          "name": "Approval",
          "type": "event"
        },
        {
          "anonymous": false,
          "inputs": [
            {
              "indexed": true,
              "internalType": "address",
              "name": "owner",
              "type": "address"
            },
            {
              "indexed": true,
              "internalType": "address",
              "name": "operator",
              "type": "address"
            },
            {
              "indexed": false,
              "internalType": "bool",
              "name": "approved",
              "type": "bool"
            }
          ],
          "name": "ApprovalForAll",
          "type": "event"
        },
        {
          "anonymous": false,
          "inputs": [
            {
              "indexed": false,
              "internalType": "uint256",
              "name": "tokenId",
              "type": "uint256"
            },
            {
              "indexed": false,
              "internalType": "address",
              "name": "owner",
              "type": "address"
            }
          ],
          "name": "NFTMinted",
          "type": "event"
        },
        {
          "anonymous": false,
          "inputs": [
            {
              "indexed": true,
              "internalType": "address",
              "name": "previousOwner",
              "type": "address"
            },
            {
              "indexed": true,
              "internalType": "address",
              "name": "newOwner",
              "type": "address"
            }
          ],
          "name": "OwnershipTransferred",
          "type": "event"
        },
        {
          "anonymous": false,
          "inputs": [
            {
              "indexed": true,
              "internalType": "address",
              "name": "from",
              "type": "address"
            },
            {
              "indexed": true,
              "internalType": "address",
              "name": "to",
              "type": "address"
            },
            {
              "indexed": true,
              "internalType": "uint256",
              "name": "tokenId",
              "type": "uint256"
            }
          ],
          "name": "Transfer",
          "type": "event"
        },
        {
          "inputs": [],
          "name": "MAX_TOKENS",
          "outputs": [
            {
              "internalType": "uint256",
              "name": "",
              "type": "uint256"
            }
          ],
          "stateMutability": "view",
          "type": "function"
        },
        {
          "inputs": [
            {
              "internalType": "address",
              "name": "to",
              "type": "address"
            },
            {
              "internalType": "uint256",
              "name": "tokenId",
              "type": "uint256"
            }
          ],
          "name": "approve",
          "outputs": [],
          "stateMutability": "nonpayable",
          "type": "function"
        },
        {
          "inputs": [
            {
              "internalType": "address",
              "name": "owner",
              "type": "address"
            }
          ],
          "name": "balanceOf",
          "outputs": [
            {
              "internalType": "uint256",
              "name": "",
              "type": "uint256"
            }
          ],
          "stateMutability": "view",
          "type": "function"
        },
        {
          "inputs": [],
          "name": "baseURI",
          "outputs": [
            {
              "internalType": "string",
              "name": "",
              "type": "string"
            }
          ],
          "stateMutability": "view",
          "type": "function"
        },
        {
          "inputs": [
            {
              "internalType": "uint256",
              "name": "tokenId",
              "type": "uint256"
            }
          ],
          "name": "getApproved",
          "outputs": [
            {
              "internalType": "address",
              "name": "",
              "type": "address"
            }
          ],
          "stateMutability": "view",
          "type": "function"
        },
        {
          "inputs": [],
          "name": "getTokensMinted",
          "outputs": [
            {
              "internalType": "uint256",
              "name": "",
              "type": "uint256"
            }
          ],
          "stateMutability": "view",
          "type": "function"
        },
        {
          "inputs": [
            {
              "internalType": "address",
              "name": "owner",
              "type": "address"
            },
            {
              "internalType": "address",
              "name": "operator",
              "type": "address"
            }
          ],
          "name": "isApprovedForAll",
          "outputs": [
            {
              "internalType": "bool",
              "name": "",
              "type": "bool"
            }
          ],
          "stateMutability": "view",
          "type": "function"
        },
        {
          "inputs": [],
          "name": "maxTokenPurchase",
          "outputs": [
            {
              "internalType": "uint256",
              "name": "",
              "type": "uint256"
            }
          ],
          "stateMutability": "view",
          "type": "function"
        },
        {
          "inputs": [],
          "name": "mint",
          "outputs": [],
          "stateMutability": "payable",
          "type": "function"
        },
        {
          "inputs": [],
          "name": "mint1",
          "outputs": [],
          "stateMutability": "payable",
          "type": "function"
        },
        {
          "inputs": [
            {
              "internalType": "uint256",
              "name": "number",
              "type": "uint256"
            }
          ],
          "name": "mint2",
          "outputs": [],
          "stateMutability": "payable",
          "type": "function"
        },
        {
          "inputs": [
            {
              "internalType": "address",
              "name": "receiver",
              "type": "address"
            },
            {
              "internalType": "uint256",
              "name": "numberOfTokens",
              "type": "uint256"
            }
          ],
          "name": "mint3",
          "outputs": [],
          "stateMutability": "nonpayable",
          "type": "function"
        },
        {
          "inputs": [],
          "name": "name",
          "outputs": [
            {
              "internalType": "string",
              "name": "",
              "type": "string"
            }
          ],
          "stateMutability": "view",
          "type": "function"
        },
        {
          "inputs": [],
          "name": "owner",
          "outputs": [
            {
              "internalType": "address",
              "name": "",
              "type": "address"
            }
          ],
          "stateMutability": "view",
          "type": "function"
        },
        {
          "inputs": [
            {
              "internalType": "uint256",
              "name": "tokenId",
              "type": "uint256"
            }
          ],
          "name": "ownerOf",
          "outputs": [
            {
              "internalType": "address",
              "name": "",
              "type": "address"
            }
          ],
          "stateMutability": "view",
          "type": "function"
        },
        {
          "inputs": [],
          "name": "renounceOwnership",
          "outputs": [],
          "stateMutability": "nonpayable",
          "type": "function"
        },
        {
          "inputs": [
            {
              "internalType": "address",
              "name": "from",
              "type": "address"
            },
            {
              "internalType": "address",
              "name": "to",
              "type": "address"
            },
            {
              "internalType": "uint256",
              "name": "tokenId",
              "type": "uint256"
            }
          ],
          "name": "safeTransferFrom",
          "outputs": [],
          "stateMutability": "nonpayable",
          "type": "function"
        },
        {
          "inputs": [
            {
              "internalType": "address",
              "name": "from",
              "type": "address"
            },
            {
              "internalType": "address",
              "name": "to",
              "type": "address"
            },
            {
              "internalType": "uint256",
              "name": "tokenId",
              "type": "uint256"
            },
            {
              "internalType": "bytes",
              "name": "_data",
              "type": "bytes"
            }
          ],
          "name": "safeTransferFrom",
          "outputs": [],
          "stateMutability": "nonpayable",
          "type": "function"
        },
        {
          "inputs": [],
          "name": "saleIsActive",
          "outputs": [
            {
              "internalType": "bool",
              "name": "",
              "type": "bool"
            }
          ],
          "stateMutability": "view",
          "type": "function"
        },
        {
          "inputs": [
            {
              "internalType": "address",
              "name": "operator",
              "type": "address"
            },
            {
              "internalType": "bool",
              "name": "approved",
              "type": "bool"
            }
          ],
          "name": "setApprovalForAll",
          "outputs": [],
          "stateMutability": "nonpayable",
          "type": "function"
        },
        {
          "inputs": [
            {
              "internalType": "string",
              "name": "_newBaseURI",
              "type": "string"
            }
          ],
          "name": "setBaseURI",
          "outputs": [],
          "stateMutability": "nonpayable",
          "type": "function"
        },
        {
          "inputs": [
            {
              "internalType": "uint256",
              "name": "_price",
              "type": "uint256"
            }
          ],
          "name": "setPrice",
          "outputs": [],
          "stateMutability": "nonpayable",
          "type": "function"
        },
        {
          "inputs": [
            {
              "internalType": "bytes4",
              "name": "interfaceId",
              "type": "bytes4"
            }
          ],
          "name": "supportsInterface",
          "outputs": [
            {
              "internalType": "bool",
              "name": "",
              "type": "bool"
            }
          ],
          "stateMutability": "view",
          "type": "function"
        },
        {
          "inputs": [],
          "name": "symbol",
          "outputs": [
            {
              "internalType": "string",
              "name": "",
              "type": "string"
            }
          ],
          "stateMutability": "view",
          "type": "function"
        },
        {
          "inputs": [],
          "name": "toggleSaleState",
          "outputs": [],
          "stateMutability": "nonpayable",
          "type": "function"
        },
        {
          "inputs": [
            {
              "internalType": "uint256",
              "name": "index",
              "type": "uint256"
            }
          ],
          "name": "tokenByIndex",
          "outputs": [
            {
              "internalType": "uint256",
              "name": "",
              "type": "uint256"
            }
          ],
          "stateMutability": "view",
          "type": "function"
        },
        {
          "inputs": [
            {
              "internalType": "address",
              "name": "owner",
              "type": "address"
            },
            {
              "internalType": "uint256",
              "name": "index",
              "type": "uint256"
            }
          ],
          "name": "tokenOfOwnerByIndex",
          "outputs": [
            {
              "internalType": "uint256",
              "name": "",
              "type": "uint256"
            }
          ],
          "stateMutability": "view",
          "type": "function"
        },
        {
          "inputs": [],
          "name": "tokenPrice",
          "outputs": [
            {
              "internalType": "uint256",
              "name": "",
              "type": "uint256"
            }
          ],
          "stateMutability": "view",
          "type": "function"
        },
        {
          "inputs": [
            {
              "internalType": "uint256",
              "name": "tokenId",
              "type": "uint256"
            }
          ],
          "name": "tokenURI",
          "outputs": [
            {
              "internalType": "string",
              "name": "",
              "type": "string"
            }
          ],
          "stateMutability": "view",
          "type": "function"
        },
        {
          "inputs": [],
          "name": "totalSupply",
          "outputs": [
            {
              "internalType": "uint256",
              "name": "",
              "type": "uint256"
            }
          ],
          "stateMutability": "view",
          "type": "function"
        },
        {
          "inputs": [
            {
              "internalType": "address",
              "name": "from",
              "type": "address"
            },
            {
              "internalType": "address",
              "name": "to",
              "type": "address"
            },
            {
              "internalType": "uint256",
              "name": "tokenId",
              "type": "uint256"
            }
          ],
          "name": "transferFrom",
          "outputs": [],
          "stateMutability": "nonpayable",
          "type": "function"
        },
        {
          "inputs": [
            {
              "internalType": "address",
              "name": "newOwner",
              "type": "address"
            }
          ],
          "name": "transferOwnership",
          "outputs": [],
          "stateMutability": "nonpayable",
          "type": "function"
        },
        {
          "inputs": [],
          "name": "withdraw",
          "outputs": [],
          "stateMutability": "payable",
          "type": "function"
        }
      ],
      "evm": {
        "bytecode": {
          "linkReferences": {},
          "object": "608060405267016345785d8a0000600b556002600c55610457600d556040518060800160405280605181526020016200458960519139600e90805190602001906200004c9291906200020a565b506001600f60006101000a81548160ff0219169083151502179055503480156200007557600080fd5b506040518060400160405280601781526020017f4e4654666c6f77204d656d6265727368697020506173730000000000000000008152506040518060400160405280600781526020017f4e4654666c6f77000000000000000000000000000000000000000000000000008152508160009080519060200190620000fa9291906200020a565b508060019080519060200190620001139291906200020a565b505050620001366200012a6200013c60201b60201c565b6200014460201b60201c565b6200031f565b600033905090565b6000600660009054906101000a900473ffffffffffffffffffffffffffffffffffffffff16905081600660006101000a81548173ffffffffffffffffffffffffffffffffffffffff021916908373ffffffffffffffffffffffffffffffffffffffff1602179055508173ffffffffffffffffffffffffffffffffffffffff168173ffffffffffffffffffffffffffffffffffffffff167f8be0079c531659141344cd1fd0a4f28419497f9722a3daafe3b4186f6b6457e060405160405180910390a35050565b8280546200021890620002ba565b90600052602060002090601f0160209004810192826200023c576000855562000288565b82601f106200025757805160ff191683800117855562000288565b8280016001018555821562000288579182015b82811115620002875782518255916020019190600101906200026a565b5b5090506200029791906200029b565b5090565b5b80821115620002b65760008160009055506001016200029c565b5090565b60006002820490506001821680620002d357607f821691505b60208210811415620002ea57620002e9620002f0565b5b50919050565b7f4e487b7100000000000000000000000000000000000000000000000000000000600052602260045260246000fd5b61425a806200032f6000396000f3fe6080604052600436106101ee5760003560e01c80636c0360eb1161010d578063a22cb465116100a0578063daaeec861161006f578063daaeec861461068f578063e985e9c5146106a6578063eb8d2444146106e3578063f2fde38b1461070e578063f47c84c514610737576101ee565b8063a22cb465146105d5578063b88d4fde146105fe578063c87b56dd14610627578063d69f6bae14610664576101ee565b806385d64c08116100dc57806385d64c081461052d5780638da5cb5b1461055657806391b7f5ed1461058157806395d89b41146105aa576101ee565b80636c0360eb1461048357806370a08231146104ae578063715018a6146104eb5780637ff9b59614610502576101ee565b806323b872dd1161018557806342842e0e1161015457806342842e0e146103b75780634f6ccce7146103e057806355f804b31461041d5780636352211e14610446576101ee565b806323b872dd1461032b5780632f745c59146103545780633aa18088146103915780633ccfd60b146103ad576101ee565b8063095ea7b3116101c1578063095ea7b3146102a257806309aa3dcf146102cb5780631249c58b146102f657806318160ddd14610300576101ee565b806301ffc9a7146101f3578063044b4b5d1461023057806306fdde031461023a578063081812fc14610265575b600080fd5b3480156101ff57600080fd5b5061021a60048036038101906102159190612f90565b610762565b60405161022791906134df565b60405180910390f35b610238610774565b005b34801561024657600080fd5b5061024f6108a8565b60405161025c91906134fa565b60405180910390f35b34801561027157600080fd5b5061028c60048036038101906102879190613023565b61093a565b6040516102999190613478565b60405180910390f35b3480156102ae57600080fd5b506102c960048036038101906102c49190612f54565b6109bf565b005b3480156102d757600080fd5b506102e0610ad7565b6040516102ed91906137bc565b60405180910390f35b6102fe610add565b005b34801561030c57600080fd5b50610315610c26565b60405161032291906137bc565b60405180910390f35b34801561033757600080fd5b50610352600480360381019061034d9190612e4e565b610c33565b005b34801561036057600080fd5b5061037b60048036038101906103769190612f54565b610c93565b60405161038891906137bc565b60405180910390f35b6103ab60048036038101906103a69190613023565b610d38565b005b6103b5610ee0565b005b3480156103c357600080fd5b506103de60048036038101906103d99190612e4e565b610fdc565b005b3480156103ec57600080fd5b5061040760048036038101906104029190613023565b610ffc565b60405161041491906137bc565b60405180910390f35b34801561042957600080fd5b50610444600480360381019061043f9190612fe2565b611093565b005b34801561045257600080fd5b5061046d60048036038101906104689190613023565b611129565b60405161047a9190613478565b60405180910390f35b34801561048f57600080fd5b506104986111db565b6040516104a591906134fa565b60405180910390f35b3480156104ba57600080fd5b506104d560048036038101906104d09190612de9565b611269565b6040516104e291906137bc565b60405180910390f35b3480156104f757600080fd5b50610500611321565b005b34801561050e57600080fd5b506105176113a9565b60405161052491906137bc565b60405180910390f35b34801561053957600080fd5b50610554600480360381019061054f9190612f54565b6113af565b005b34801561056257600080fd5b5061056b611522565b6040516105789190613478565b60405180910390f35b34801561058d57600080fd5b506105a860048036038101906105a39190613023565b61154c565b005b3480156105b657600080fd5b506105bf6115d2565b6040516105cc91906134fa565b60405180910390f35b3480156105e157600080fd5b506105fc60048036038101906105f79190612f18565b611664565b005b34801561060a57600080fd5b5061062560048036038101906106209190612e9d565b61167a565b005b34801561063357600080fd5b5061064e60048036038101906106499190613023565b6116dc565b60405161065b91906134fa565b60405180910390f35b34801561067057600080fd5b50610679611779565b60405161068691906137bc565b60405180910390f35b34801561069b57600080fd5b506106a4611788565b005b3480156106b257600080fd5b506106cd60048036038101906106c89190612e12565b611830565b6040516106da91906134df565b60405180910390f35b3480156106ef57600080fd5b506106f86118c4565b60405161070591906134df565b60405180910390f35b34801561071a57600080fd5b5061073560048036038101906107309190612de9565b6118d7565b005b34801561074357600080fd5b5061074c6119cf565b60405161075991906137bc565b60405180910390f35b600061076d826119d5565b9050919050565b600f60009054906101000a900460ff166107c3576040517f08c379a00000000000000000000000000000000000000000000000000000000081526004016107ba906135dc565b60405180910390fd5b600d546107e160016107d3610c26565b611a4f90919063ffffffff16565b1115610822576040517f08c379a0000000000000000000000000000000000000000000000000000000008152600401610819906136bc565b60405180910390fd5b600b5434101561083157600080fd5b600061084e6001610840610c26565b611a4f90919063ffffffff16565b9050600d5461085b610c26565b10156108a55761086b3382611a65565b7f0176f203df400d7bd5f1b1c9ef36c16709bf3b5d9fd35f000a6bae32393f66c3813360405161089c9291906137d7565b60405180910390a15b50565b6060600080546108b790613a6f565b80601f01602080910402602001604051908101604052809291908181526020018280546108e390613a6f565b80156109305780601f1061090557610100808354040283529160200191610930565b820191906000526020600020905b81548152906001019060200180831161091357829003601f168201915b5050505050905090565b600061094582611a83565b610984576040517f08c379a000000000000000000000000000000000000000000000000000000000815260040161097b906136fc565b60405180910390fd5b6004600083815260200190815260200160002060009054906101000a900473ffffffffffffffffffffffffffffffffffffffff169050919050565b60006109ca82611129565b90508073ffffffffffffffffffffffffffffffffffffffff168373ffffffffffffffffffffffffffffffffffffffff161415610a3b576040517f08c379a0000000000000000000000000000000000000000000000000000000008152600401610a329061375c565b60405180910390fd5b8073ffffffffffffffffffffffffffffffffffffffff16610a5a611aef565b73ffffffffffffffffffffffffffffffffffffffff161480610a895750610a8881610a83611aef565b611830565b5b610ac8576040517f08c379a0000000000000000000000000000000000000000000000000000000008152600401610abf9061365c565b60405180910390fd5b610ad28383611af7565b505050565b600c5481565b600f60009054906101000a900460ff16610b2c576040517f08c379a0000000000000000000000000000000000000000000000000000000008152600401610b23906135dc565b60405180910390fd5b600d54610b4a6001610b3c610c26565b611a4f90919063ffffffff16565b1115610b8b576040517f08c379a0000000000000000000000000000000000000000000000000000000008152600401610b82906136bc565b60405180910390fd5b6000610b9633611269565b14610ba057600080fd5b600b54341015610baf57600080fd5b6000610bcc6001610bbe610c26565b611a4f90919063ffffffff16565b9050600d54610bd9610c26565b1015610c2357610be93382611a65565b7f0176f203df400d7bd5f1b1c9ef36c16709bf3b5d9fd35f000a6bae32393f66c38133604051610c1a9291906137d7565b60405180910390a15b50565b6000600980549050905090565b610c44610c3e611aef565b82611bb0565b610c83576040517f08c379a0000000000000000000000000000000000000000000000000000000008152600401610c7a9061377c565b60405180910390fd5b610c8e838383611c8e565b505050565b6000610c9e83611269565b8210610cdf576040517f08c379a0000000000000000000000000000000000000000000000000000000008152600401610cd69061353c565b60405180910390fd5b600760008473ffffffffffffffffffffffffffffffffffffffff1673ffffffffffffffffffffffffffffffffffffffff168152602001908152602001600020600083815260200190815260200160002054905092915050565b600f60009054906101000a900460ff16610d87576040517f08c379a0000000000000000000000000000000000000000000000000000000008152600401610d7e906135dc565b60405180910390fd5b60008111610dca576040517f08c379a0000000000000000000000000000000000000000000000000000000008152600401610dc19061351c565b60405180910390fd5b600d54610de782610dd9610c26565b611a4f90919063ffffffff16565b1115610e28576040517f08c379a0000000000000000000000000000000000000000000000000000000008152600401610e1f906136bc565b60405180910390fd5b610e3d81600b54611ef590919063ffffffff16565b341015610e4957600080fd5b60005b81811015610edc576000610e716001610e63610c26565b611a4f90919063ffffffff16565b9050600d54610e7e610c26565b1015610ec857610e8e3382611a65565b7f0176f203df400d7bd5f1b1c9ef36c16709bf3b5d9fd35f000a6bae32393f66c38133604051610ebf9291906137d7565b60405180910390a15b508080610ed490613ad2565b915050610e4c565b5050565b610ee8611aef565b73ffffffffffffffffffffffffffffffffffffffff16610f06611522565b73ffffffffffffffffffffffffffffffffffffffff1614610f5c576040517f08c379a0000000000000000000000000000000000000000000000000000000008152600401610f539061371c565b60405180910390fd5b6000610f66611522565b73ffffffffffffffffffffffffffffffffffffffff1647604051610f8990613463565b60006040518083038185875af1925050503d8060008114610fc6576040519150601f19603f3d011682016040523d82523d6000602084013e610fcb565b606091505b5050905080610fd957600080fd5b50565b610ff78383836040518060200160405280600081525061167a565b505050565b6000611006610c26565b8210611047576040517f08c379a000000000000000000000000000000000000000000000000000000000815260040161103e9061379c565b60405180910390fd5b60098281548110611081577f4e487b7100000000000000000000000000000000000000000000000000000000600052603260045260246000fd5b90600052602060002001549050919050565b61109b611aef565b73ffffffffffffffffffffffffffffffffffffffff166110b9611522565b73ffffffffffffffffffffffffffffffffffffffff161461110f576040517f08c379a00000000000000000000000000000000000000000000000000000000081526004016111069061371c565b60405180910390fd5b80600e9080519060200190611125929190612c0d565b5050565b6000806002600084815260200190815260200160002060009054906101000a900473ffffffffffffffffffffffffffffffffffffffff169050600073ffffffffffffffffffffffffffffffffffffffff168173ffffffffffffffffffffffffffffffffffffffff1614156111d2576040517f08c379a00000000000000000000000000000000000000000000000000000000081526004016111c99061369c565b60405180910390fd5b80915050919050565b600e80546111e890613a6f565b80601f016020809104026020016040519081016040528092919081815260200182805461121490613a6f565b80156112615780601f1061123657610100808354040283529160200191611261565b820191906000526020600020905b81548152906001019060200180831161124457829003601f168201915b505050505081565b60008073ffffffffffffffffffffffffffffffffffffffff168273ffffffffffffffffffffffffffffffffffffffff1614156112da576040517f08c379a00000000000000000000000000000000000000000000000000000000081526004016112d19061367c565b60405180910390fd5b600360008373ffffffffffffffffffffffffffffffffffffffff1673ffffffffffffffffffffffffffffffffffffffff168152602001908152602001600020549050919050565b611329611aef565b73ffffffffffffffffffffffffffffffffffffffff16611347611522565b73ffffffffffffffffffffffffffffffffffffffff161461139d576040517f08c379a00000000000000000000000000000000000000000000000000000000081526004016113949061371c565b60405180910390fd5b6113a76000611f0b565b565b600b5481565b6113b7611aef565b73ffffffffffffffffffffffffffffffffffffffff166113d5611522565b73ffffffffffffffffffffffffffffffffffffffff161461142b576040517f08c379a00000000000000000000000000000000000000000000000000000000081526004016114229061371c565b60405180910390fd5b600d54611449600161143b610c26565b611a4f90919063ffffffff16565b111561148a576040517f08c379a0000000000000000000000000000000000000000000000000000000008152600401611481906136bc565b60405180910390fd5b60005b8181101561151d5760006114b260016114a4610c26565b611a4f90919063ffffffff16565b9050600d546114bf610c26565b1015611509576114cf8482611a65565b7f0176f203df400d7bd5f1b1c9ef36c16709bf3b5d9fd35f000a6bae32393f66c381856040516115009291906137d7565b60405180910390a15b50808061151590613ad2565b91505061148d565b505050565b6000600660009054906101000a900473ffffffffffffffffffffffffffffffffffffffff16905090565b611554611aef565b73ffffffffffffffffffffffffffffffffffffffff16611572611522565b73ffffffffffffffffffffffffffffffffffffffff16146115c8576040517f08c379a00000000000000000000000000000000000000000000000000000000081526004016115bf9061371c565b60405180910390fd5b80600b8190555050565b6060600180546115e190613a6f565b80601f016020809104026020016040519081016040528092919081815260200182805461160d90613a6f565b801561165a5780601f1061162f5761010080835404028352916020019161165a565b820191906000526020600020905b81548152906001019060200180831161163d57829003601f168201915b5050505050905090565b61167661166f611aef565b8383611fd1565b5050565b61168b611685611aef565b83611bb0565b6116ca576040517f08c379a00000000000000000000000000000000000000000000000000000000081526004016116c19061377c565b60405180910390fd5b6116d68484848461213e565b50505050565b60606116e782611a83565b611726576040517f08c379a000000000000000000000000000000000000000000000000000000000815260040161171d9061373c565b60405180910390fd5b600061173061219a565b905060008151116117505760405180602001604052806000815250611771565b806040516020016117619190613441565b6040516020818303038152906040525b915050919050565b6000611783610c26565b905090565b611790611aef565b73ffffffffffffffffffffffffffffffffffffffff166117ae611522565b73ffffffffffffffffffffffffffffffffffffffff1614611804576040517f08c379a00000000000000000000000000000000000000000000000000000000081526004016117fb9061371c565b60405180910390fd5b600f60009054906101000a900460ff1615600f60006101000a81548160ff021916908315150217905550565b6000600560008473ffffffffffffffffffffffffffffffffffffffff1673ffffffffffffffffffffffffffffffffffffffff16815260200190815260200160002060008373ffffffffffffffffffffffffffffffffffffffff1673ffffffffffffffffffffffffffffffffffffffff16815260200190815260200160002060009054906101000a900460ff16905092915050565b600f60009054906101000a900460ff1681565b6118df611aef565b73ffffffffffffffffffffffffffffffffffffffff166118fd611522565b73ffffffffffffffffffffffffffffffffffffffff1614611953576040517f08c379a000000000000000000000000000000000000000000000000000000000815260040161194a9061371c565b60405180910390fd5b600073ffffffffffffffffffffffffffffffffffffffff168173ffffffffffffffffffffffffffffffffffffffff1614156119c3576040517f08c379a00000000000000000000000000000000000000000000000000000000081526004016119ba9061357c565b60405180910390fd5b6119cc81611f0b565b50565b600d5481565b60007f780e9d63000000000000000000000000000000000000000000000000000000007bffffffffffffffffffffffffffffffffffffffffffffffffffffffff1916827bffffffffffffffffffffffffffffffffffffffffffffffffffffffff19161480611a485750611a478261222c565b5b9050919050565b60008183611a5d91906138d5565b905092915050565b611a7f82826040518060200160405280600081525061230e565b5050565b60008073ffffffffffffffffffffffffffffffffffffffff166002600084815260200190815260200160002060009054906101000a900473ffffffffffffffffffffffffffffffffffffffff1673ffffffffffffffffffffffffffffffffffffffff1614159050919050565b600033905090565b816004600083815260200190815260200160002060006101000a81548173ffffffffffffffffffffffffffffffffffffffff021916908373ffffffffffffffffffffffffffffffffffffffff160217905550808273ffffffffffffffffffffffffffffffffffffffff16611b6a83611129565b73ffffffffffffffffffffffffffffffffffffffff167f8c5be1e5ebec7d5bd14f71427d1e84f3dd0314c0f7b2291e5b200ac8c7c3b92560405160405180910390a45050565b6000611bbb82611a83565b611bfa576040517f08c379a0000000000000000000000000000000000000000000000000000000008152600401611bf19061363c565b60405180910390fd5b6000611c0583611129565b90508073ffffffffffffffffffffffffffffffffffffffff168473ffffffffffffffffffffffffffffffffffffffff161480611c7457508373ffffffffffffffffffffffffffffffffffffffff16611c5c8461093a565b73ffffffffffffffffffffffffffffffffffffffff16145b80611c855750611c848185611830565b5b91505092915050565b8273ffffffffffffffffffffffffffffffffffffffff16611cae82611129565b73ffffffffffffffffffffffffffffffffffffffff1614611d04576040517f08c379a0000000000000000000000000000000000000000000000000000000008152600401611cfb9061359c565b60405180910390fd5b600073ffffffffffffffffffffffffffffffffffffffff168273ffffffffffffffffffffffffffffffffffffffff161415611d74576040517f08c379a0000000000000000000000000000000000000000000000000000000008152600401611d6b906135fc565b60405180910390fd5b611d7f838383612369565b611d8a600082611af7565b6001600360008573ffffffffffffffffffffffffffffffffffffffff1673ffffffffffffffffffffffffffffffffffffffff1681526020019081526020016000206000828254611dda9190613985565b925050819055506001600360008473ffffffffffffffffffffffffffffffffffffffff1673ffffffffffffffffffffffffffffffffffffffff1681526020019081526020016000206000828254611e3191906138d5565b92505081905550816002600083815260200190815260200160002060006101000a81548173ffffffffffffffffffffffffffffffffffffffff021916908373ffffffffffffffffffffffffffffffffffffffff160217905550808273ffffffffffffffffffffffffffffffffffffffff168473ffffffffffffffffffffffffffffffffffffffff167fddf252ad1be2c89b69c2b068fc378daa952ba7f163c4a11628f55a4df523b3ef60405160405180910390a4611ef0838383612379565b505050565b60008183611f03919061392b565b905092915050565b6000600660009054906101000a900473ffffffffffffffffffffffffffffffffffffffff16905081600660006101000a81548173ffffffffffffffffffffffffffffffffffffffff021916908373ffffffffffffffffffffffffffffffffffffffff1602179055508173ffffffffffffffffffffffffffffffffffffffff168173ffffffffffffffffffffffffffffffffffffffff167f8be0079c531659141344cd1fd0a4f28419497f9722a3daafe3b4186f6b6457e060405160405180910390a35050565b8173ffffffffffffffffffffffffffffffffffffffff168373ffffffffffffffffffffffffffffffffffffffff161415612040576040517f08c379a00000000000000000000000000000000000000000000000000000000081526004016120379061361c565b60405180910390fd5b80600560008573ffffffffffffffffffffffffffffffffffffffff1673ffffffffffffffffffffffffffffffffffffffff16815260200190815260200160002060008473ffffffffffffffffffffffffffffffffffffffff1673ffffffffffffffffffffffffffffffffffffffff16815260200190815260200160002060006101000a81548160ff0219169083151502179055508173ffffffffffffffffffffffffffffffffffffffff168373ffffffffffffffffffffffffffffffffffffffff167f17307eab39ab6107e8899845ad3d59bd9653f200f220920489ca2b5937696c318360405161213191906134df565b60405180910390a3505050565b612149848484611c8e565b6121558484848461237e565b612194576040517f08c379a000000000000000000000000000000000000000000000000000000000815260040161218b9061355c565b60405180910390fd5b50505050565b6060600e80546121a990613a6f565b80601f01602080910402602001604051908101604052809291908181526020018280546121d590613a6f565b80156122225780601f106121f757610100808354040283529160200191612222565b820191906000526020600020905b81548152906001019060200180831161220557829003601f168201915b5050505050905090565b60007f80ac58cd000000000000000000000000000000000000000000000000000000007bffffffffffffffffffffffffffffffffffffffffffffffffffffffff1916827bffffffffffffffffffffffffffffffffffffffffffffffffffffffff191614806122f757507f5b5e139f000000000000000000000000000000000000000000000000000000007bffffffffffffffffffffffffffffffffffffffffffffffffffffffff1916827bffffffffffffffffffffffffffffffffffffffffffffffffffffffff1916145b80612307575061230682612515565b5b9050919050565b612318838361257f565b612325600084848461237e565b612364576040517f08c379a000000000000000000000000000000000000000000000000000000000815260040161235b9061355c565b60405180910390fd5b505050565b612374838383612759565b505050565b505050565b600061239f8473ffffffffffffffffffffffffffffffffffffffff1661286d565b15612508578373ffffffffffffffffffffffffffffffffffffffff1663150b7a026123c8611aef565b8786866040518563ffffffff1660e01b81526004016123ea9493929190613493565b602060405180830381600087803b15801561240457600080fd5b505af192505050801561243557506040513d601f19601f820116820180604052508101906124329190612fb9565b60015b6124b8573d8060008114612465576040519150601f19603f3d011682016040523d82523d6000602084013e61246a565b606091505b506000815114156124b0576040517f08c379a00000000000000000000000000000000000000000000000000000000081526004016124a79061355c565b60405180910390fd5b805181602001fd5b63150b7a0260e01b7bffffffffffffffffffffffffffffffffffffffffffffffffffffffff1916817bffffffffffffffffffffffffffffffffffffffffffffffffffffffff19161491505061250d565b600190505b949350505050565b60007f01ffc9a7000000000000000000000000000000000000000000000000000000007bffffffffffffffffffffffffffffffffffffffffffffffffffffffff1916827bffffffffffffffffffffffffffffffffffffffffffffffffffffffff1916149050919050565b600073ffffffffffffffffffffffffffffffffffffffff168273ffffffffffffffffffffffffffffffffffffffff1614156125ef576040517f08c379a00000000000000000000000000000000000000000000000000000000081526004016125e6906136dc565b60405180910390fd5b6125f881611a83565b15612638576040517f08c379a000000000000000000000000000000000000000000000000000000000815260040161262f906135bc565b60405180910390fd5b61264460008383612369565b6001600360008473ffffffffffffffffffffffffffffffffffffffff1673ffffffffffffffffffffffffffffffffffffffff168152602001908152602001600020600082825461269491906138d5565b92505081905550816002600083815260200190815260200160002060006101000a81548173ffffffffffffffffffffffffffffffffffffffff021916908373ffffffffffffffffffffffffffffffffffffffff160217905550808273ffffffffffffffffffffffffffffffffffffffff16600073ffffffffffffffffffffffffffffffffffffffff167fddf252ad1be2c89b69c2b068fc378daa952ba7f163c4a11628f55a4df523b3ef60405160405180910390a461275560008383612379565b5050565b612764838383612890565b600073ffffffffffffffffffffffffffffffffffffffff168373ffffffffffffffffffffffffffffffffffffffff1614156127a7576127a281612895565b6127e6565b8173ffffffffffffffffffffffffffffffffffffffff168373ffffffffffffffffffffffffffffffffffffffff16146127e5576127e483826128de565b5b5b600073ffffffffffffffffffffffffffffffffffffffff168273ffffffffffffffffffffffffffffffffffffffff1614156128295761282481612a4b565b612868565b8273ffffffffffffffffffffffffffffffffffffffff168273ffffffffffffffffffffffffffffffffffffffff1614612867576128668282612b8e565b5b5b505050565b6000808273ffffffffffffffffffffffffffffffffffffffff163b119050919050565b505050565b600980549050600a600083815260200190815260200160002081905550600981908060018154018082558091505060019003906000526020600020016000909190919091505550565b600060016128eb84611269565b6128f59190613985565b90506000600860008481526020019081526020016000205490508181146129da576000600760008673ffffffffffffffffffffffffffffffffffffffff1673ffffffffffffffffffffffffffffffffffffffff168152602001908152602001600020600084815260200190815260200160002054905080600760008773ffffffffffffffffffffffffffffffffffffffff1673ffffffffffffffffffffffffffffffffffffffff168152602001908152602001600020600084815260200190815260200160002081905550816008600083815260200190815260200160002081905550505b6008600084815260200190815260200160002060009055600760008573ffffffffffffffffffffffffffffffffffffffff1673ffffffffffffffffffffffffffffffffffffffff16815260200190815260200160002060008381526020019081526020016000206000905550505050565b60006001600980549050612a5f9190613985565b90506000600a6000848152602001908152602001600020549050600060098381548110612ab5577f4e487b7100000000000000000000000000000000000000000000000000000000600052603260045260246000fd5b906000526020600020015490508060098381548110612afd577f4e487b7100000000000000000000000000000000000000000000000000000000600052603260045260246000fd5b906000526020600020018190555081600a600083815260200190815260200160002081905550600a6000858152602001908152602001600020600090556009805480612b72577f4e487b7100000000000000000000000000000000000000000000000000000000600052603160045260246000fd5b6001900381819060005260206000200160009055905550505050565b6000612b9983611269565b905081600760008573ffffffffffffffffffffffffffffffffffffffff1673ffffffffffffffffffffffffffffffffffffffff168152602001908152602001600020600083815260200190815260200160002081905550806008600084815260200190815260200160002081905550505050565b828054612c1990613a6f565b90600052602060002090601f016020900481019282612c3b5760008555612c82565b82601f10612c5457805160ff1916838001178555612c82565b82800160010185558215612c82579182015b82811115612c81578251825591602001919060010190612c66565b5b509050612c8f9190612c93565b5090565b5b80821115612cac576000816000905550600101612c94565b5090565b6000612cc3612cbe84613825565b613800565b905082815260208101848484011115612cdb57600080fd5b612ce6848285613a2d565b509392505050565b6000612d01612cfc84613856565b613800565b905082815260208101848484011115612d1957600080fd5b612d24848285613a2d565b509392505050565b600081359050612d3b816141c8565b92915050565b600081359050612d50816141df565b92915050565b600081359050612d65816141f6565b92915050565b600081519050612d7a816141f6565b92915050565b600082601f830112612d9157600080fd5b8135612da1848260208601612cb0565b91505092915050565b600082601f830112612dbb57600080fd5b8135612dcb848260208601612cee565b91505092915050565b600081359050612de38161420d565b92915050565b600060208284031215612dfb57600080fd5b6000612e0984828501612d2c565b91505092915050565b60008060408385031215612e2557600080fd5b6000612e3385828601612d2c565b9250506020612e4485828601612d2c565b9150509250929050565b600080600060608486031215612e6357600080fd5b6000612e7186828701612d2c565b9350506020612e8286828701612d2c565b9250506040612e9386828701612dd4565b9150509250925092565b60008060008060808587031215612eb357600080fd5b6000612ec187828801612d2c565b9450506020612ed287828801612d2c565b9350506040612ee387828801612dd4565b925050606085013567ffffffffffffffff811115612f0057600080fd5b612f0c87828801612d80565b91505092959194509250565b60008060408385031215612f2b57600080fd5b6000612f3985828601612d2c565b9250506020612f4a85828601612d41565b9150509250929050565b60008060408385031215612f6757600080fd5b6000612f7585828601612d2c565b9250506020612f8685828601612dd4565b9150509250929050565b600060208284031215612fa257600080fd5b6000612fb084828501612d56565b91505092915050565b600060208284031215612fcb57600080fd5b6000612fd984828501612d6b565b91505092915050565b600060208284031215612ff457600080fd5b600082013567ffffffffffffffff81111561300e57600080fd5b61301a84828501612daa565b91505092915050565b60006020828403121561303557600080fd5b600061304384828501612dd4565b91505092915050565b613055816139b9565b82525050565b613064816139cb565b82525050565b600061307582613887565b61307f818561389d565b935061308f818560208601613a3c565b61309881613ba8565b840191505092915050565b60006130ae82613892565b6130b881856138b9565b93506130c8818560208601613a3c565b6130d181613ba8565b840191505092915050565b60006130e782613892565b6130f181856138ca565b9350613101818560208601613a3c565b80840191505092915050565b600061311a602a836138b9565b915061312582613bb9565b604082019050919050565b600061313d6001836138ca565b915061314882613c08565b600182019050919050565b6000613160602b836138b9565b915061316b82613c31565b604082019050919050565b60006131836032836138b9565b915061318e82613c80565b604082019050919050565b60006131a66026836138b9565b91506131b182613ccf565b604082019050919050565b60006131c96025836138b9565b91506131d482613d1e565b604082019050919050565b60006131ec601c836138b9565b91506131f782613d6d565b602082019050919050565b600061320f6021836138b9565b915061321a82613d96565b604082019050919050565b60006132326024836138b9565b915061323d82613de5565b604082019050919050565b60006132556019836138b9565b915061326082613e34565b602082019050919050565b6000613278602c836138b9565b915061328382613e5d565b604082019050919050565b600061329b6038836138b9565b91506132a682613eac565b604082019050919050565b60006132be602a836138b9565b91506132c982613efb565b604082019050919050565b60006132e16029836138b9565b91506132ec82613f4a565b604082019050919050565b6000613304602a836138b9565b915061330f82613f99565b604082019050919050565b60006133276020836138b9565b915061333282613fe8565b602082019050919050565b600061334a602c836138b9565b915061335582614011565b604082019050919050565b600061336d6020836138b9565b915061337882614060565b602082019050919050565b6000613390602f836138b9565b915061339b82614089565b604082019050919050565b60006133b36021836138b9565b91506133be826140d8565b604082019050919050565b60006133d66000836138ae565b91506133e182614127565b600082019050919050565b60006133f96031836138b9565b91506134048261412a565b604082019050919050565b600061341c602c836138b9565b915061342782614179565b604082019050919050565b61343b81613a23565b82525050565b600061344d82846130dc565b915061345882613130565b915081905092915050565b600061346e826133c9565b9150819050919050565b600060208201905061348d600083018461304c565b92915050565b60006080820190506134a8600083018761304c565b6134b5602083018661304c565b6134c26040830185613432565b81810360608301526134d4818461306a565b905095945050505050565b60006020820190506134f4600083018461305b565b92915050565b6000602082019050818103600083015261351481846130a3565b905092915050565b600060208201905081810360008301526135358161310d565b9050919050565b6000602082019050818103600083015261355581613153565b9050919050565b6000602082019050818103600083015261357581613176565b9050919050565b6000602082019050818103600083015261359581613199565b9050919050565b600060208201905081810360008301526135b5816131bc565b9050919050565b600060208201905081810360008301526135d5816131df565b9050919050565b600060208201905081810360008301526135f581613202565b9050919050565b6000602082019050818103600083015261361581613225565b9050919050565b6000602082019050818103600083015261363581613248565b9050919050565b600060208201905081810360008301526136558161326b565b9050919050565b600060208201905081810360008301526136758161328e565b9050919050565b60006020820190508181036000830152613695816132b1565b9050919050565b600060208201905081810360008301526136b5816132d4565b9050919050565b600060208201905081810360008301526136d5816132f7565b9050919050565b600060208201905081810360008301526136f58161331a565b9050919050565b600060208201905081810360008301526137158161333d565b9050919050565b6000602082019050818103600083015261373581613360565b9050919050565b6000602082019050818103600083015261375581613383565b9050919050565b60006020820190508181036000830152613775816133a6565b9050919050565b60006020820190508181036000830152613795816133ec565b9050919050565b600060208201905081810360008301526137b58161340f565b9050919050565b60006020820190506137d16000830184613432565b92915050565b60006040820190506137ec6000830185613432565b6137f9602083018461304c565b9392505050565b600061380a61381b565b90506138168282613aa1565b919050565b6000604051905090565b600067ffffffffffffffff8211156138405761383f613b79565b5b61384982613ba8565b9050602081019050919050565b600067ffffffffffffffff82111561387157613870613b79565b5b61387a82613ba8565b9050602081019050919050565b600081519050919050565b600081519050919050565b600082825260208201905092915050565b600081905092915050565b600082825260208201905092915050565b600081905092915050565b60006138e082613a23565b91506138eb83613a23565b9250827fffffffffffffffffffffffffffffffffffffffffffffffffffffffffffffffff038211156139205761391f613b1b565b5b828201905092915050565b600061393682613a23565b915061394183613a23565b9250817fffffffffffffffffffffffffffffffffffffffffffffffffffffffffffffffff048311821515161561397a57613979613b1b565b5b828202905092915050565b600061399082613a23565b915061399b83613a23565b9250828210156139ae576139ad613b1b565b5b828203905092915050565b60006139c482613a03565b9050919050565b60008115159050919050565b60007fffffffff0000000000000000000000000000000000000000000000000000000082169050919050565b600073ffffffffffffffffffffffffffffffffffffffff82169050919050565b6000819050919050565b82818337600083830152505050565b60005b83811015613a5a578082015181840152602081019050613a3f565b83811115613a69576000848401525b50505050565b60006002820490506001821680613a8757607f821691505b60208210811415613a9b57613a9a613b4a565b5b50919050565b613aaa82613ba8565b810181811067ffffffffffffffff82111715613ac957613ac8613b79565b5b80604052505050565b6000613add82613a23565b91507fffffffffffffffffffffffffffffffffffffffffffffffffffffffffffffffff821415613b1057613b0f613b1b565b5b600182019050919050565b7f4e487b7100000000000000000000000000000000000000000000000000000000600052601160045260246000fd5b7f4e487b7100000000000000000000000000000000000000000000000000000000600052602260045260246000fd5b7f4e487b7100000000000000000000000000000000000000000000000000000000600052604160045260246000fd5b6000601f19601f8301169050919050565b7f43616e206f6e6c79206d696e74206f6e65206f72206d6f726520746f6b656e7360008201527f20617420612074696d6500000000000000000000000000000000000000000000602082015250565b7f3000000000000000000000000000000000000000000000000000000000000000600082015250565b7f455243373231456e756d657261626c653a206f776e657220696e646578206f7560008201527f74206f6620626f756e6473000000000000000000000000000000000000000000602082015250565b7f4552433732313a207472616e7366657220746f206e6f6e20455243373231526560008201527f63656976657220696d706c656d656e7465720000000000000000000000000000602082015250565b7f4f776e61626c653a206e6577206f776e657220697320746865207a65726f206160008201527f6464726573730000000000000000000000000000000000000000000000000000602082015250565b7f4552433732313a207472616e736665722066726f6d20696e636f72726563742060008201527f6f776e6572000000000000000000000000000000000000000000000000000000602082015250565b7f4552433732313a20746f6b656e20616c7265616479206d696e74656400000000600082015250565b7f53616c65206d7573742062652061637469766520746f206d696e7420546f6b6560008201527f6e00000000000000000000000000000000000000000000000000000000000000602082015250565b7f4552433732313a207472616e7366657220746f20746865207a65726f2061646460008201527f7265737300000000000000000000000000000000000000000000000000000000602082015250565b7f4552433732313a20617070726f766520746f2063616c6c657200000000000000600082015250565b7f4552433732313a206f70657261746f7220717565727920666f72206e6f6e657860008201527f697374656e7420746f6b656e0000000000000000000000000000000000000000602082015250565b7f4552433732313a20617070726f76652063616c6c6572206973206e6f74206f7760008201527f6e6572206e6f7220617070726f76656420666f7220616c6c0000000000000000602082015250565b7f4552433732313a2062616c616e636520717565727920666f7220746865207a6560008201527f726f206164647265737300000000000000000000000000000000000000000000602082015250565b7f4552433732313a206f776e657220717565727920666f72206e6f6e657869737460008201527f656e7420746f6b656e0000000000000000000000000000000000000000000000602082015250565b7f507572636861736520776f756c6420657863656564206d617820737570706c7960008201527f206f6620746f6b656e7300000000000000000000000000000000000000000000602082015250565b7f4552433732313a206d696e7420746f20746865207a65726f2061646472657373600082015250565b7f4552433732313a20617070726f76656420717565727920666f72206e6f6e657860008201527f697374656e7420746f6b656e0000000000000000000000000000000000000000602082015250565b7f4f776e61626c653a2063616c6c6572206973206e6f7420746865206f776e6572600082015250565b7f4552433732314d657461646174613a2055524920717565727920666f72206e6f60008201527f6e6578697374656e7420746f6b656e0000000000000000000000000000000000602082015250565b7f4552433732313a20617070726f76616c20746f2063757272656e74206f776e6560008201527f7200000000000000000000000000000000000000000000000000000000000000602082015250565b50565b7f4552433732313a207472616e736665722063616c6c6572206973206e6f74206f60008201527f776e6572206e6f7220617070726f766564000000000000000000000000000000602082015250565b7f455243373231456e756d657261626c653a20676c6f62616c20696e646578206f60008201527f7574206f6620626f756e64730000000000000000000000000000000000000000602082015250565b6141d1816139b9565b81146141dc57600080fd5b50565b6141e8816139cb565b81146141f357600080fd5b50565b6141ff816139d7565b811461420a57600080fd5b50565b61421681613a23565b811461422157600080fd5b5056fea264697066735822122066d0be7741a33ca7adad11d4baca4773ccfcfdc7b4bfedf729a3c7c072dfbb5464736f6c6343000804003368747470733a2f2f676174657761792e70696e6174612e636c6f75642f697066732f516d5a48743754664e486b677268316a7376745256756e7674716666356e3153566a466f533762626979526369792f",
          "opcodes": "PUSH1 0x80 PUSH1 0x40 MSTORE PUSH8 0x16345785D8A0000 PUSH1 0xB SSTORE PUSH1 0x2 PUSH1 0xC SSTORE PUSH2 0x457 PUSH1 0xD SSTORE PUSH1 0x40 MLOAD DUP1 PUSH1 0x80 ADD PUSH1 0x40 MSTORE DUP1 PUSH1 0x51 DUP2 MSTORE PUSH1 0x20 ADD PUSH3 0x4589 PUSH1 0x51 SWAP2 CODECOPY PUSH1 0xE SWAP1 DUP1 MLOAD SWAP1 PUSH1 0x20 ADD SWAP1 PUSH3 0x4C SWAP3 SWAP2 SWAP1 PUSH3 0x20A JUMP JUMPDEST POP PUSH1 0x1 PUSH1 0xF PUSH1 0x0 PUSH2 0x100 EXP DUP2 SLOAD DUP2 PUSH1 0xFF MUL NOT AND SWAP1 DUP4 ISZERO ISZERO MUL OR SWAP1 SSTORE POP CALLVALUE DUP1 ISZERO PUSH3 0x75 JUMPI PUSH1 0x0 DUP1 REVERT JUMPDEST POP PUSH1 0x40 MLOAD DUP1 PUSH1 0x40 ADD PUSH1 0x40 MSTORE DUP1 PUSH1 0x17 DUP2 MSTORE PUSH1 0x20 ADD PUSH32 0x4E4654666C6F77204D656D626572736869702050617373000000000000000000 DUP2 MSTORE POP PUSH1 0x40 MLOAD DUP1 PUSH1 0x40 ADD PUSH1 0x40 MSTORE DUP1 PUSH1 0x7 DUP2 MSTORE PUSH1 0x20 ADD PUSH32 0x4E4654666C6F7700000000000000000000000000000000000000000000000000 DUP2 MSTORE POP DUP2 PUSH1 0x0 SWAP1 DUP1 MLOAD SWAP1 PUSH1 0x20 ADD SWAP1 PUSH3 0xFA SWAP3 SWAP2 SWAP1 PUSH3 0x20A JUMP JUMPDEST POP DUP1 PUSH1 0x1 SWAP1 DUP1 MLOAD SWAP1 PUSH1 0x20 ADD SWAP1 PUSH3 0x113 SWAP3 SWAP2 SWAP1 PUSH3 0x20A JUMP JUMPDEST POP POP POP PUSH3 0x136 PUSH3 0x12A PUSH3 0x13C PUSH1 0x20 SHL PUSH1 0x20 SHR JUMP JUMPDEST PUSH3 0x144 PUSH1 0x20 SHL PUSH1 0x20 SHR JUMP JUMPDEST PUSH3 0x31F JUMP JUMPDEST PUSH1 0x0 CALLER SWAP1 POP SWAP1 JUMP JUMPDEST PUSH1 0x0 PUSH1 0x6 PUSH1 0x0 SWAP1 SLOAD SWAP1 PUSH2 0x100 EXP SWAP1 DIV PUSH20 0xFFFFFFFFFFFFFFFFFFFFFFFFFFFFFFFFFFFFFFFF AND SWAP1 POP DUP2 PUSH1 0x6 PUSH1 0x0 PUSH2 0x100 EXP DUP2 SLOAD DUP2 PUSH20 0xFFFFFFFFFFFFFFFFFFFFFFFFFFFFFFFFFFFFFFFF MUL NOT AND SWAP1 DUP4 PUSH20 0xFFFFFFFFFFFFFFFFFFFFFFFFFFFFFFFFFFFFFFFF AND MUL OR SWAP1 SSTORE POP DUP2 PUSH20 0xFFFFFFFFFFFFFFFFFFFFFFFFFFFFFFFFFFFFFFFF AND DUP2 PUSH20 0xFFFFFFFFFFFFFFFFFFFFFFFFFFFFFFFFFFFFFFFF AND PUSH32 0x8BE0079C531659141344CD1FD0A4F28419497F9722A3DAAFE3B4186F6B6457E0 PUSH1 0x40 MLOAD PUSH1 0x40 MLOAD DUP1 SWAP2 SUB SWAP1 LOG3 POP POP JUMP JUMPDEST DUP3 DUP1 SLOAD PUSH3 0x218 SWAP1 PUSH3 0x2BA JUMP JUMPDEST SWAP1 PUSH1 0x0 MSTORE PUSH1 0x20 PUSH1 0x0 KECCAK256 SWAP1 PUSH1 0x1F ADD PUSH1 0x20 SWAP1 DIV DUP2 ADD SWAP3 DUP3 PUSH3 0x23C JUMPI PUSH1 0x0 DUP6 SSTORE PUSH3 0x288 JUMP JUMPDEST DUP3 PUSH1 0x1F LT PUSH3 0x257 JUMPI DUP1 MLOAD PUSH1 0xFF NOT AND DUP4 DUP1 ADD OR DUP6 SSTORE PUSH3 0x288 JUMP JUMPDEST DUP3 DUP1 ADD PUSH1 0x1 ADD DUP6 SSTORE DUP3 ISZERO PUSH3 0x288 JUMPI SWAP2 DUP3 ADD JUMPDEST DUP3 DUP2 GT ISZERO PUSH3 0x287 JUMPI DUP3 MLOAD DUP3 SSTORE SWAP2 PUSH1 0x20 ADD SWAP2 SWAP1 PUSH1 0x1 ADD SWAP1 PUSH3 0x26A JUMP JUMPDEST JUMPDEST POP SWAP1 POP PUSH3 0x297 SWAP2 SWAP1 PUSH3 0x29B JUMP JUMPDEST POP SWAP1 JUMP JUMPDEST JUMPDEST DUP1 DUP3 GT ISZERO PUSH3 0x2B6 JUMPI PUSH1 0x0 DUP2 PUSH1 0x0 SWAP1 SSTORE POP PUSH1 0x1 ADD PUSH3 0x29C JUMP JUMPDEST POP SWAP1 JUMP JUMPDEST PUSH1 0x0 PUSH1 0x2 DUP3 DIV SWAP1 POP PUSH1 0x1 DUP3 AND DUP1 PUSH3 0x2D3 JUMPI PUSH1 0x7F DUP3 AND SWAP2 POP JUMPDEST PUSH1 0x20 DUP3 LT DUP2 EQ ISZERO PUSH3 0x2EA JUMPI PUSH3 0x2E9 PUSH3 0x2F0 JUMP JUMPDEST JUMPDEST POP SWAP2 SWAP1 POP JUMP JUMPDEST PUSH32 0x4E487B7100000000000000000000000000000000000000000000000000000000 PUSH1 0x0 MSTORE PUSH1 0x22 PUSH1 0x4 MSTORE PUSH1 0x24 PUSH1 0x0 REVERT JUMPDEST PUSH2 0x425A DUP1 PUSH3 0x32F PUSH1 0x0 CODECOPY PUSH1 0x0 RETURN INVALID PUSH1 0x80 PUSH1 0x40 MSTORE PUSH1 0x4 CALLDATASIZE LT PUSH2 0x1EE JUMPI PUSH1 0x0 CALLDATALOAD PUSH1 0xE0 SHR DUP1 PUSH4 0x6C0360EB GT PUSH2 0x10D JUMPI DUP1 PUSH4 0xA22CB465 GT PUSH2 0xA0 JUMPI DUP1 PUSH4 0xDAAEEC86 GT PUSH2 0x6F JUMPI DUP1 PUSH4 0xDAAEEC86 EQ PUSH2 0x68F JUMPI DUP1 PUSH4 0xE985E9C5 EQ PUSH2 0x6A6 JUMPI DUP1 PUSH4 0xEB8D2444 EQ PUSH2 0x6E3 JUMPI DUP1 PUSH4 0xF2FDE38B EQ PUSH2 0x70E JUMPI DUP1 PUSH4 0xF47C84C5 EQ PUSH2 0x737 JUMPI PUSH2 0x1EE JUMP JUMPDEST DUP1 PUSH4 0xA22CB465 EQ PUSH2 0x5D5 JUMPI DUP1 PUSH4 0xB88D4FDE EQ PUSH2 0x5FE JUMPI DUP1 PUSH4 0xC87B56DD EQ PUSH2 0x627 JUMPI DUP1 PUSH4 0xD69F6BAE EQ PUSH2 0x664 JUMPI PUSH2 0x1EE JUMP JUMPDEST DUP1 PUSH4 0x85D64C08 GT PUSH2 0xDC JUMPI DUP1 PUSH4 0x85D64C08 EQ PUSH2 0x52D JUMPI DUP1 PUSH4 0x8DA5CB5B EQ PUSH2 0x556 JUMPI DUP1 PUSH4 0x91B7F5ED EQ PUSH2 0x581 JUMPI DUP1 PUSH4 0x95D89B41 EQ PUSH2 0x5AA JUMPI PUSH2 0x1EE JUMP JUMPDEST DUP1 PUSH4 0x6C0360EB EQ PUSH2 0x483 JUMPI DUP1 PUSH4 0x70A08231 EQ PUSH2 0x4AE JUMPI DUP1 PUSH4 0x715018A6 EQ PUSH2 0x4EB JUMPI DUP1 PUSH4 0x7FF9B596 EQ PUSH2 0x502 JUMPI PUSH2 0x1EE JUMP JUMPDEST DUP1 PUSH4 0x23B872DD GT PUSH2 0x185 JUMPI DUP1 PUSH4 0x42842E0E GT PUSH2 0x154 JUMPI DUP1 PUSH4 0x42842E0E EQ PUSH2 0x3B7 JUMPI DUP1 PUSH4 0x4F6CCCE7 EQ PUSH2 0x3E0 JUMPI DUP1 PUSH4 0x55F804B3 EQ PUSH2 0x41D JUMPI DUP1 PUSH4 0x6352211E EQ PUSH2 0x446 JUMPI PUSH2 0x1EE JUMP JUMPDEST DUP1 PUSH4 0x23B872DD EQ PUSH2 0x32B JUMPI DUP1 PUSH4 0x2F745C59 EQ PUSH2 0x354 JUMPI DUP1 PUSH4 0x3AA18088 EQ PUSH2 0x391 JUMPI DUP1 PUSH4 0x3CCFD60B EQ PUSH2 0x3AD JUMPI PUSH2 0x1EE JUMP JUMPDEST DUP1 PUSH4 0x95EA7B3 GT PUSH2 0x1C1 JUMPI DUP1 PUSH4 0x95EA7B3 EQ PUSH2 0x2A2 JUMPI DUP1 PUSH4 0x9AA3DCF EQ PUSH2 0x2CB JUMPI DUP1 PUSH4 0x1249C58B EQ PUSH2 0x2F6 JUMPI DUP1 PUSH4 0x18160DDD EQ PUSH2 0x300 JUMPI PUSH2 0x1EE JUMP JUMPDEST DUP1 PUSH4 0x1FFC9A7 EQ PUSH2 0x1F3 JUMPI DUP1 PUSH4 0x44B4B5D EQ PUSH2 0x230 JUMPI DUP1 PUSH4 0x6FDDE03 EQ PUSH2 0x23A JUMPI DUP1 PUSH4 0x81812FC EQ PUSH2 0x265 JUMPI JUMPDEST PUSH1 0x0 DUP1 REVERT JUMPDEST CALLVALUE DUP1 ISZERO PUSH2 0x1FF JUMPI PUSH1 0x0 DUP1 REVERT JUMPDEST POP PUSH2 0x21A PUSH1 0x4 DUP1 CALLDATASIZE SUB DUP2 ADD SWAP1 PUSH2 0x215 SWAP2 SWAP1 PUSH2 0x2F90 JUMP JUMPDEST PUSH2 0x762 JUMP JUMPDEST PUSH1 0x40 MLOAD PUSH2 0x227 SWAP2 SWAP1 PUSH2 0x34DF JUMP JUMPDEST PUSH1 0x40 MLOAD DUP1 SWAP2 SUB SWAP1 RETURN JUMPDEST PUSH2 0x238 PUSH2 0x774 JUMP JUMPDEST STOP JUMPDEST CALLVALUE DUP1 ISZERO PUSH2 0x246 JUMPI PUSH1 0x0 DUP1 REVERT JUMPDEST POP PUSH2 0x24F PUSH2 0x8A8 JUMP JUMPDEST PUSH1 0x40 MLOAD PUSH2 0x25C SWAP2 SWAP1 PUSH2 0x34FA JUMP JUMPDEST PUSH1 0x40 MLOAD DUP1 SWAP2 SUB SWAP1 RETURN JUMPDEST CALLVALUE DUP1 ISZERO PUSH2 0x271 JUMPI PUSH1 0x0 DUP1 REVERT JUMPDEST POP PUSH2 0x28C PUSH1 0x4 DUP1 CALLDATASIZE SUB DUP2 ADD SWAP1 PUSH2 0x287 SWAP2 SWAP1 PUSH2 0x3023 JUMP JUMPDEST PUSH2 0x93A JUMP JUMPDEST PUSH1 0x40 MLOAD PUSH2 0x299 SWAP2 SWAP1 PUSH2 0x3478 JUMP JUMPDEST PUSH1 0x40 MLOAD DUP1 SWAP2 SUB SWAP1 RETURN JUMPDEST CALLVALUE DUP1 ISZERO PUSH2 0x2AE JUMPI PUSH1 0x0 DUP1 REVERT JUMPDEST POP PUSH2 0x2C9 PUSH1 0x4 DUP1 CALLDATASIZE SUB DUP2 ADD SWAP1 PUSH2 0x2C4 SWAP2 SWAP1 PUSH2 0x2F54 JUMP JUMPDEST PUSH2 0x9BF JUMP JUMPDEST STOP JUMPDEST CALLVALUE DUP1 ISZERO PUSH2 0x2D7 JUMPI PUSH1 0x0 DUP1 REVERT JUMPDEST POP PUSH2 0x2E0 PUSH2 0xAD7 JUMP JUMPDEST PUSH1 0x40 MLOAD PUSH2 0x2ED SWAP2 SWAP1 PUSH2 0x37BC JUMP JUMPDEST PUSH1 0x40 MLOAD DUP1 SWAP2 SUB SWAP1 RETURN JUMPDEST PUSH2 0x2FE PUSH2 0xADD JUMP JUMPDEST STOP JUMPDEST CALLVALUE DUP1 ISZERO PUSH2 0x30C JUMPI PUSH1 0x0 DUP1 REVERT JUMPDEST POP PUSH2 0x315 PUSH2 0xC26 JUMP JUMPDEST PUSH1 0x40 MLOAD PUSH2 0x322 SWAP2 SWAP1 PUSH2 0x37BC JUMP JUMPDEST PUSH1 0x40 MLOAD DUP1 SWAP2 SUB SWAP1 RETURN JUMPDEST CALLVALUE DUP1 ISZERO PUSH2 0x337 JUMPI PUSH1 0x0 DUP1 REVERT JUMPDEST POP PUSH2 0x352 PUSH1 0x4 DUP1 CALLDATASIZE SUB DUP2 ADD SWAP1 PUSH2 0x34D SWAP2 SWAP1 PUSH2 0x2E4E JUMP JUMPDEST PUSH2 0xC33 JUMP JUMPDEST STOP JUMPDEST CALLVALUE DUP1 ISZERO PUSH2 0x360 JUMPI PUSH1 0x0 DUP1 REVERT JUMPDEST POP PUSH2 0x37B PUSH1 0x4 DUP1 CALLDATASIZE SUB DUP2 ADD SWAP1 PUSH2 0x376 SWAP2 SWAP1 PUSH2 0x2F54 JUMP JUMPDEST PUSH2 0xC93 JUMP JUMPDEST PUSH1 0x40 MLOAD PUSH2 0x388 SWAP2 SWAP1 PUSH2 0x37BC JUMP JUMPDEST PUSH1 0x40 MLOAD DUP1 SWAP2 SUB SWAP1 RETURN JUMPDEST PUSH2 0x3AB PUSH1 0x4 DUP1 CALLDATASIZE SUB DUP2 ADD SWAP1 PUSH2 0x3A6 SWAP2 SWAP1 PUSH2 0x3023 JUMP JUMPDEST PUSH2 0xD38 JUMP JUMPDEST STOP JUMPDEST PUSH2 0x3B5 PUSH2 0xEE0 JUMP JUMPDEST STOP JUMPDEST CALLVALUE DUP1 ISZERO PUSH2 0x3C3 JUMPI PUSH1 0x0 DUP1 REVERT JUMPDEST POP PUSH2 0x3DE PUSH1 0x4 DUP1 CALLDATASIZE SUB DUP2 ADD SWAP1 PUSH2 0x3D9 SWAP2 SWAP1 PUSH2 0x2E4E JUMP JUMPDEST PUSH2 0xFDC JUMP JUMPDEST STOP JUMPDEST CALLVALUE DUP1 ISZERO PUSH2 0x3EC JUMPI PUSH1 0x0 DUP1 REVERT JUMPDEST POP PUSH2 0x407 PUSH1 0x4 DUP1 CALLDATASIZE SUB DUP2 ADD SWAP1 PUSH2 0x402 SWAP2 SWAP1 PUSH2 0x3023 JUMP JUMPDEST PUSH2 0xFFC JUMP JUMPDEST PUSH1 0x40 MLOAD PUSH2 0x414 SWAP2 SWAP1 PUSH2 0x37BC JUMP JUMPDEST PUSH1 0x40 MLOAD DUP1 SWAP2 SUB SWAP1 RETURN JUMPDEST CALLVALUE DUP1 ISZERO PUSH2 0x429 JUMPI PUSH1 0x0 DUP1 REVERT JUMPDEST POP PUSH2 0x444 PUSH1 0x4 DUP1 CALLDATASIZE SUB DUP2 ADD SWAP1 PUSH2 0x43F SWAP2 SWAP1 PUSH2 0x2FE2 JUMP JUMPDEST PUSH2 0x1093 JUMP JUMPDEST STOP JUMPDEST CALLVALUE DUP1 ISZERO PUSH2 0x452 JUMPI PUSH1 0x0 DUP1 REVERT JUMPDEST POP PUSH2 0x46D PUSH1 0x4 DUP1 CALLDATASIZE SUB DUP2 ADD SWAP1 PUSH2 0x468 SWAP2 SWAP1 PUSH2 0x3023 JUMP JUMPDEST PUSH2 0x1129 JUMP JUMPDEST PUSH1 0x40 MLOAD PUSH2 0x47A SWAP2 SWAP1 PUSH2 0x3478 JUMP JUMPDEST PUSH1 0x40 MLOAD DUP1 SWAP2 SUB SWAP1 RETURN JUMPDEST CALLVALUE DUP1 ISZERO PUSH2 0x48F JUMPI PUSH1 0x0 DUP1 REVERT JUMPDEST POP PUSH2 0x498 PUSH2 0x11DB JUMP JUMPDEST PUSH1 0x40 MLOAD PUSH2 0x4A5 SWAP2 SWAP1 PUSH2 0x34FA JUMP JUMPDEST PUSH1 0x40 MLOAD DUP1 SWAP2 SUB SWAP1 RETURN JUMPDEST CALLVALUE DUP1 ISZERO PUSH2 0x4BA JUMPI PUSH1 0x0 DUP1 REVERT JUMPDEST POP PUSH2 0x4D5 PUSH1 0x4 DUP1 CALLDATASIZE SUB DUP2 ADD SWAP1 PUSH2 0x4D0 SWAP2 SWAP1 PUSH2 0x2DE9 JUMP JUMPDEST PUSH2 0x1269 JUMP JUMPDEST PUSH1 0x40 MLOAD PUSH2 0x4E2 SWAP2 SWAP1 PUSH2 0x37BC JUMP JUMPDEST PUSH1 0x40 MLOAD DUP1 SWAP2 SUB SWAP1 RETURN JUMPDEST CALLVALUE DUP1 ISZERO PUSH2 0x4F7 JUMPI PUSH1 0x0 DUP1 REVERT JUMPDEST POP PUSH2 0x500 PUSH2 0x1321 JUMP JUMPDEST STOP JUMPDEST CALLVALUE DUP1 ISZERO PUSH2 0x50E JUMPI PUSH1 0x0 DUP1 REVERT JUMPDEST POP PUSH2 0x517 PUSH2 0x13A9 JUMP JUMPDEST PUSH1 0x40 MLOAD PUSH2 0x524 SWAP2 SWAP1 PUSH2 0x37BC JUMP JUMPDEST PUSH1 0x40 MLOAD DUP1 SWAP2 SUB SWAP1 RETURN JUMPDEST CALLVALUE DUP1 ISZERO PUSH2 0x539 JUMPI PUSH1 0x0 DUP1 REVERT JUMPDEST POP PUSH2 0x554 PUSH1 0x4 DUP1 CALLDATASIZE SUB DUP2 ADD SWAP1 PUSH2 0x54F SWAP2 SWAP1 PUSH2 0x2F54 JUMP JUMPDEST PUSH2 0x13AF JUMP JUMPDEST STOP JUMPDEST CALLVALUE DUP1 ISZERO PUSH2 0x562 JUMPI PUSH1 0x0 DUP1 REVERT JUMPDEST POP PUSH2 0x56B PUSH2 0x1522 JUMP JUMPDEST PUSH1 0x40 MLOAD PUSH2 0x578 SWAP2 SWAP1 PUSH2 0x3478 JUMP JUMPDEST PUSH1 0x40 MLOAD DUP1 SWAP2 SUB SWAP1 RETURN JUMPDEST CALLVALUE DUP1 ISZERO PUSH2 0x58D JUMPI PUSH1 0x0 DUP1 REVERT JUMPDEST POP PUSH2 0x5A8 PUSH1 0x4 DUP1 CALLDATASIZE SUB DUP2 ADD SWAP1 PUSH2 0x5A3 SWAP2 SWAP1 PUSH2 0x3023 JUMP JUMPDEST PUSH2 0x154C JUMP JUMPDEST STOP JUMPDEST CALLVALUE DUP1 ISZERO PUSH2 0x5B6 JUMPI PUSH1 0x0 DUP1 REVERT JUMPDEST POP PUSH2 0x5BF PUSH2 0x15D2 JUMP JUMPDEST PUSH1 0x40 MLOAD PUSH2 0x5CC SWAP2 SWAP1 PUSH2 0x34FA JUMP JUMPDEST PUSH1 0x40 MLOAD DUP1 SWAP2 SUB SWAP1 RETURN JUMPDEST CALLVALUE DUP1 ISZERO PUSH2 0x5E1 JUMPI PUSH1 0x0 DUP1 REVERT JUMPDEST POP PUSH2 0x5FC PUSH1 0x4 DUP1 CALLDATASIZE SUB DUP2 ADD SWAP1 PUSH2 0x5F7 SWAP2 SWAP1 PUSH2 0x2F18 JUMP JUMPDEST PUSH2 0x1664 JUMP JUMPDEST STOP JUMPDEST CALLVALUE DUP1 ISZERO PUSH2 0x60A JUMPI PUSH1 0x0 DUP1 REVERT JUMPDEST POP PUSH2 0x625 PUSH1 0x4 DUP1 CALLDATASIZE SUB DUP2 ADD SWAP1 PUSH2 0x620 SWAP2 SWAP1 PUSH2 0x2E9D JUMP JUMPDEST PUSH2 0x167A JUMP JUMPDEST STOP JUMPDEST CALLVALUE DUP1 ISZERO PUSH2 0x633 JUMPI PUSH1 0x0 DUP1 REVERT JUMPDEST POP PUSH2 0x64E PUSH1 0x4 DUP1 CALLDATASIZE SUB DUP2 ADD SWAP1 PUSH2 0x649 SWAP2 SWAP1 PUSH2 0x3023 JUMP JUMPDEST PUSH2 0x16DC JUMP JUMPDEST PUSH1 0x40 MLOAD PUSH2 0x65B SWAP2 SWAP1 PUSH2 0x34FA JUMP JUMPDEST PUSH1 0x40 MLOAD DUP1 SWAP2 SUB SWAP1 RETURN JUMPDEST CALLVALUE DUP1 ISZERO PUSH2 0x670 JUMPI PUSH1 0x0 DUP1 REVERT JUMPDEST POP PUSH2 0x679 PUSH2 0x1779 JUMP JUMPDEST PUSH1 0x40 MLOAD PUSH2 0x686 SWAP2 SWAP1 PUSH2 0x37BC JUMP JUMPDEST PUSH1 0x40 MLOAD DUP1 SWAP2 SUB SWAP1 RETURN JUMPDEST CALLVALUE DUP1 ISZERO PUSH2 0x69B JUMPI PUSH1 0x0 DUP1 REVERT JUMPDEST POP PUSH2 0x6A4 PUSH2 0x1788 JUMP JUMPDEST STOP JUMPDEST CALLVALUE DUP1 ISZERO PUSH2 0x6B2 JUMPI PUSH1 0x0 DUP1 REVERT JUMPDEST POP PUSH2 0x6CD PUSH1 0x4 DUP1 CALLDATASIZE SUB DUP2 ADD SWAP1 PUSH2 0x6C8 SWAP2 SWAP1 PUSH2 0x2E12 JUMP JUMPDEST PUSH2 0x1830 JUMP JUMPDEST PUSH1 0x40 MLOAD PUSH2 0x6DA SWAP2 SWAP1 PUSH2 0x34DF JUMP JUMPDEST PUSH1 0x40 MLOAD DUP1 SWAP2 SUB SWAP1 RETURN JUMPDEST CALLVALUE DUP1 ISZERO PUSH2 0x6EF JUMPI PUSH1 0x0 DUP1 REVERT JUMPDEST POP PUSH2 0x6F8 PUSH2 0x18C4 JUMP JUMPDEST PUSH1 0x40 MLOAD PUSH2 0x705 SWAP2 SWAP1 PUSH2 0x34DF JUMP JUMPDEST PUSH1 0x40 MLOAD DUP1 SWAP2 SUB SWAP1 RETURN JUMPDEST CALLVALUE DUP1 ISZERO PUSH2 0x71A JUMPI PUSH1 0x0 DUP1 REVERT JUMPDEST POP PUSH2 0x735 PUSH1 0x4 DUP1 CALLDATASIZE SUB DUP2 ADD SWAP1 PUSH2 0x730 SWAP2 SWAP1 PUSH2 0x2DE9 JUMP JUMPDEST PUSH2 0x18D7 JUMP JUMPDEST STOP JUMPDEST CALLVALUE DUP1 ISZERO PUSH2 0x743 JUMPI PUSH1 0x0 DUP1 REVERT JUMPDEST POP PUSH2 0x74C PUSH2 0x19CF JUMP JUMPDEST PUSH1 0x40 MLOAD PUSH2 0x759 SWAP2 SWAP1 PUSH2 0x37BC JUMP JUMPDEST PUSH1 0x40 MLOAD DUP1 SWAP2 SUB SWAP1 RETURN JUMPDEST PUSH1 0x0 PUSH2 0x76D DUP3 PUSH2 0x19D5 JUMP JUMPDEST SWAP1 POP SWAP2 SWAP1 POP JUMP JUMPDEST PUSH1 0xF PUSH1 0x0 SWAP1 SLOAD SWAP1 PUSH2 0x100 EXP SWAP1 DIV PUSH1 0xFF AND PUSH2 0x7C3 JUMPI PUSH1 0x40 MLOAD PUSH32 0x8C379A000000000000000000000000000000000000000000000000000000000 DUP2 MSTORE PUSH1 0x4 ADD PUSH2 0x7BA SWAP1 PUSH2 0x35DC JUMP JUMPDEST PUSH1 0x40 MLOAD DUP1 SWAP2 SUB SWAP1 REVERT JUMPDEST PUSH1 0xD SLOAD PUSH2 0x7E1 PUSH1 0x1 PUSH2 0x7D3 PUSH2 0xC26 JUMP JUMPDEST PUSH2 0x1A4F SWAP1 SWAP2 SWAP1 PUSH4 0xFFFFFFFF AND JUMP JUMPDEST GT ISZERO PUSH2 0x822 JUMPI PUSH1 0x40 MLOAD PUSH32 0x8C379A000000000000000000000000000000000000000000000000000000000 DUP2 MSTORE PUSH1 0x4 ADD PUSH2 0x819 SWAP1 PUSH2 0x36BC JUMP JUMPDEST PUSH1 0x40 MLOAD DUP1 SWAP2 SUB SWAP1 REVERT JUMPDEST PUSH1 0xB SLOAD CALLVALUE LT ISZERO PUSH2 0x831 JUMPI PUSH1 0x0 DUP1 REVERT JUMPDEST PUSH1 0x0 PUSH2 0x84E PUSH1 0x1 PUSH2 0x840 PUSH2 0xC26 JUMP JUMPDEST PUSH2 0x1A4F SWAP1 SWAP2 SWAP1 PUSH4 0xFFFFFFFF AND JUMP JUMPDEST SWAP1 POP PUSH1 0xD SLOAD PUSH2 0x85B PUSH2 0xC26 JUMP JUMPDEST LT ISZERO PUSH2 0x8A5 JUMPI PUSH2 0x86B CALLER DUP3 PUSH2 0x1A65 JUMP JUMPDEST PUSH32 0x176F203DF400D7BD5F1B1C9EF36C16709BF3B5D9FD35F000A6BAE32393F66C3 DUP2 CALLER PUSH1 0x40 MLOAD PUSH2 0x89C SWAP3 SWAP2 SWAP1 PUSH2 0x37D7 JUMP JUMPDEST PUSH1 0x40 MLOAD DUP1 SWAP2 SUB SWAP1 LOG1 JUMPDEST POP JUMP JUMPDEST PUSH1 0x60 PUSH1 0x0 DUP1 SLOAD PUSH2 0x8B7 SWAP1 PUSH2 0x3A6F JUMP JUMPDEST DUP1 PUSH1 0x1F ADD PUSH1 0x20 DUP1 SWAP2 DIV MUL PUSH1 0x20 ADD PUSH1 0x40 MLOAD SWAP1 DUP2 ADD PUSH1 0x40 MSTORE DUP1 SWAP3 SWAP2 SWAP1 DUP2 DUP2 MSTORE PUSH1 0x20 ADD DUP3 DUP1 SLOAD PUSH2 0x8E3 SWAP1 PUSH2 0x3A6F JUMP JUMPDEST DUP1 ISZERO PUSH2 0x930 JUMPI DUP1 PUSH1 0x1F LT PUSH2 0x905 JUMPI PUSH2 0x100 DUP1 DUP4 SLOAD DIV MUL DUP4 MSTORE SWAP2 PUSH1 0x20 ADD SWAP2 PUSH2 0x930 JUMP JUMPDEST DUP3 ADD SWAP2 SWAP1 PUSH1 0x0 MSTORE PUSH1 0x20 PUSH1 0x0 KECCAK256 SWAP1 JUMPDEST DUP2 SLOAD DUP2 MSTORE SWAP1 PUSH1 0x1 ADD SWAP1 PUSH1 0x20 ADD DUP1 DUP4 GT PUSH2 0x913 JUMPI DUP3 SWAP1 SUB PUSH1 0x1F AND DUP3 ADD SWAP2 JUMPDEST POP POP POP POP POP SWAP1 POP SWAP1 JUMP JUMPDEST PUSH1 0x0 PUSH2 0x945 DUP3 PUSH2 0x1A83 JUMP JUMPDEST PUSH2 0x984 JUMPI PUSH1 0x40 MLOAD PUSH32 0x8C379A000000000000000000000000000000000000000000000000000000000 DUP2 MSTORE PUSH1 0x4 ADD PUSH2 0x97B SWAP1 PUSH2 0x36FC JUMP JUMPDEST PUSH1 0x40 MLOAD DUP1 SWAP2 SUB SWAP1 REVERT JUMPDEST PUSH1 0x4 PUSH1 0x0 DUP4 DUP2 MSTORE PUSH1 0x20 ADD SWAP1 DUP2 MSTORE PUSH1 0x20 ADD PUSH1 0x0 KECCAK256 PUSH1 0x0 SWAP1 SLOAD SWAP1 PUSH2 0x100 EXP SWAP1 DIV PUSH20 0xFFFFFFFFFFFFFFFFFFFFFFFFFFFFFFFFFFFFFFFF AND SWAP1 POP SWAP2 SWAP1 POP JUMP JUMPDEST PUSH1 0x0 PUSH2 0x9CA DUP3 PUSH2 0x1129 JUMP JUMPDEST SWAP1 POP DUP1 PUSH20 0xFFFFFFFFFFFFFFFFFFFFFFFFFFFFFFFFFFFFFFFF AND DUP4 PUSH20 0xFFFFFFFFFFFFFFFFFFFFFFFFFFFFFFFFFFFFFFFF AND EQ ISZERO PUSH2 0xA3B JUMPI PUSH1 0x40 MLOAD PUSH32 0x8C379A000000000000000000000000000000000000000000000000000000000 DUP2 MSTORE PUSH1 0x4 ADD PUSH2 0xA32 SWAP1 PUSH2 0x375C JUMP JUMPDEST PUSH1 0x40 MLOAD DUP1 SWAP2 SUB SWAP1 REVERT JUMPDEST DUP1 PUSH20 0xFFFFFFFFFFFFFFFFFFFFFFFFFFFFFFFFFFFFFFFF AND PUSH2 0xA5A PUSH2 0x1AEF JUMP JUMPDEST PUSH20 0xFFFFFFFFFFFFFFFFFFFFFFFFFFFFFFFFFFFFFFFF AND EQ DUP1 PUSH2 0xA89 JUMPI POP PUSH2 0xA88 DUP2 PUSH2 0xA83 PUSH2 0x1AEF JUMP JUMPDEST PUSH2 0x1830 JUMP JUMPDEST JUMPDEST PUSH2 0xAC8 JUMPI PUSH1 0x40 MLOAD PUSH32 0x8C379A000000000000000000000000000000000000000000000000000000000 DUP2 MSTORE PUSH1 0x4 ADD PUSH2 0xABF SWAP1 PUSH2 0x365C JUMP JUMPDEST PUSH1 0x40 MLOAD DUP1 SWAP2 SUB SWAP1 REVERT JUMPDEST PUSH2 0xAD2 DUP4 DUP4 PUSH2 0x1AF7 JUMP JUMPDEST POP POP POP JUMP JUMPDEST PUSH1 0xC SLOAD DUP2 JUMP JUMPDEST PUSH1 0xF PUSH1 0x0 SWAP1 SLOAD SWAP1 PUSH2 0x100 EXP SWAP1 DIV PUSH1 0xFF AND PUSH2 0xB2C JUMPI PUSH1 0x40 MLOAD PUSH32 0x8C379A000000000000000000000000000000000000000000000000000000000 DUP2 MSTORE PUSH1 0x4 ADD PUSH2 0xB23 SWAP1 PUSH2 0x35DC JUMP JUMPDEST PUSH1 0x40 MLOAD DUP1 SWAP2 SUB SWAP1 REVERT JUMPDEST PUSH1 0xD SLOAD PUSH2 0xB4A PUSH1 0x1 PUSH2 0xB3C PUSH2 0xC26 JUMP JUMPDEST PUSH2 0x1A4F SWAP1 SWAP2 SWAP1 PUSH4 0xFFFFFFFF AND JUMP JUMPDEST GT ISZERO PUSH2 0xB8B JUMPI PUSH1 0x40 MLOAD PUSH32 0x8C379A000000000000000000000000000000000000000000000000000000000 DUP2 MSTORE PUSH1 0x4 ADD PUSH2 0xB82 SWAP1 PUSH2 0x36BC JUMP JUMPDEST PUSH1 0x40 MLOAD DUP1 SWAP2 SUB SWAP1 REVERT JUMPDEST PUSH1 0x0 PUSH2 0xB96 CALLER PUSH2 0x1269 JUMP JUMPDEST EQ PUSH2 0xBA0 JUMPI PUSH1 0x0 DUP1 REVERT JUMPDEST PUSH1 0xB SLOAD CALLVALUE LT ISZERO PUSH2 0xBAF JUMPI PUSH1 0x0 DUP1 REVERT JUMPDEST PUSH1 0x0 PUSH2 0xBCC PUSH1 0x1 PUSH2 0xBBE PUSH2 0xC26 JUMP JUMPDEST PUSH2 0x1A4F SWAP1 SWAP2 SWAP1 PUSH4 0xFFFFFFFF AND JUMP JUMPDEST SWAP1 POP PUSH1 0xD SLOAD PUSH2 0xBD9 PUSH2 0xC26 JUMP JUMPDEST LT ISZERO PUSH2 0xC23 JUMPI PUSH2 0xBE9 CALLER DUP3 PUSH2 0x1A65 JUMP JUMPDEST PUSH32 0x176F203DF400D7BD5F1B1C9EF36C16709BF3B5D9FD35F000A6BAE32393F66C3 DUP2 CALLER PUSH1 0x40 MLOAD PUSH2 0xC1A SWAP3 SWAP2 SWAP1 PUSH2 0x37D7 JUMP JUMPDEST PUSH1 0x40 MLOAD DUP1 SWAP2 SUB SWAP1 LOG1 JUMPDEST POP JUMP JUMPDEST PUSH1 0x0 PUSH1 0x9 DUP1 SLOAD SWAP1 POP SWAP1 POP SWAP1 JUMP JUMPDEST PUSH2 0xC44 PUSH2 0xC3E PUSH2 0x1AEF JUMP JUMPDEST DUP3 PUSH2 0x1BB0 JUMP JUMPDEST PUSH2 0xC83 JUMPI PUSH1 0x40 MLOAD PUSH32 0x8C379A000000000000000000000000000000000000000000000000000000000 DUP2 MSTORE PUSH1 0x4 ADD PUSH2 0xC7A SWAP1 PUSH2 0x377C JUMP JUMPDEST PUSH1 0x40 MLOAD DUP1 SWAP2 SUB SWAP1 REVERT JUMPDEST PUSH2 0xC8E DUP4 DUP4 DUP4 PUSH2 0x1C8E JUMP JUMPDEST POP POP POP JUMP JUMPDEST PUSH1 0x0 PUSH2 0xC9E DUP4 PUSH2 0x1269 JUMP JUMPDEST DUP3 LT PUSH2 0xCDF JUMPI PUSH1 0x40 MLOAD PUSH32 0x8C379A000000000000000000000000000000000000000000000000000000000 DUP2 MSTORE PUSH1 0x4 ADD PUSH2 0xCD6 SWAP1 PUSH2 0x353C JUMP JUMPDEST PUSH1 0x40 MLOAD DUP1 SWAP2 SUB SWAP1 REVERT JUMPDEST PUSH1 0x7 PUSH1 0x0 DUP5 PUSH20 0xFFFFFFFFFFFFFFFFFFFFFFFFFFFFFFFFFFFFFFFF AND PUSH20 0xFFFFFFFFFFFFFFFFFFFFFFFFFFFFFFFFFFFFFFFF AND DUP2 MSTORE PUSH1 0x20 ADD SWAP1 DUP2 MSTORE PUSH1 0x20 ADD PUSH1 0x0 KECCAK256 PUSH1 0x0 DUP4 DUP2 MSTORE PUSH1 0x20 ADD SWAP1 DUP2 MSTORE PUSH1 0x20 ADD PUSH1 0x0 KECCAK256 SLOAD SWAP1 POP SWAP3 SWAP2 POP POP JUMP JUMPDEST PUSH1 0xF PUSH1 0x0 SWAP1 SLOAD SWAP1 PUSH2 0x100 EXP SWAP1 DIV PUSH1 0xFF AND PUSH2 0xD87 JUMPI PUSH1 0x40 MLOAD PUSH32 0x8C379A000000000000000000000000000000000000000000000000000000000 DUP2 MSTORE PUSH1 0x4 ADD PUSH2 0xD7E SWAP1 PUSH2 0x35DC JUMP JUMPDEST PUSH1 0x40 MLOAD DUP1 SWAP2 SUB SWAP1 REVERT JUMPDEST PUSH1 0x0 DUP2 GT PUSH2 0xDCA JUMPI PUSH1 0x40 MLOAD PUSH32 0x8C379A000000000000000000000000000000000000000000000000000000000 DUP2 MSTORE PUSH1 0x4 ADD PUSH2 0xDC1 SWAP1 PUSH2 0x351C JUMP JUMPDEST PUSH1 0x40 MLOAD DUP1 SWAP2 SUB SWAP1 REVERT JUMPDEST PUSH1 0xD SLOAD PUSH2 0xDE7 DUP3 PUSH2 0xDD9 PUSH2 0xC26 JUMP JUMPDEST PUSH2 0x1A4F SWAP1 SWAP2 SWAP1 PUSH4 0xFFFFFFFF AND JUMP JUMPDEST GT ISZERO PUSH2 0xE28 JUMPI PUSH1 0x40 MLOAD PUSH32 0x8C379A000000000000000000000000000000000000000000000000000000000 DUP2 MSTORE PUSH1 0x4 ADD PUSH2 0xE1F SWAP1 PUSH2 0x36BC JUMP JUMPDEST PUSH1 0x40 MLOAD DUP1 SWAP2 SUB SWAP1 REVERT JUMPDEST PUSH2 0xE3D DUP2 PUSH1 0xB SLOAD PUSH2 0x1EF5 SWAP1 SWAP2 SWAP1 PUSH4 0xFFFFFFFF AND JUMP JUMPDEST CALLVALUE LT ISZERO PUSH2 0xE49 JUMPI PUSH1 0x0 DUP1 REVERT JUMPDEST PUSH1 0x0 JUMPDEST DUP2 DUP2 LT ISZERO PUSH2 0xEDC JUMPI PUSH1 0x0 PUSH2 0xE71 PUSH1 0x1 PUSH2 0xE63 PUSH2 0xC26 JUMP JUMPDEST PUSH2 0x1A4F SWAP1 SWAP2 SWAP1 PUSH4 0xFFFFFFFF AND JUMP JUMPDEST SWAP1 POP PUSH1 0xD SLOAD PUSH2 0xE7E PUSH2 0xC26 JUMP JUMPDEST LT ISZERO PUSH2 0xEC8 JUMPI PUSH2 0xE8E CALLER DUP3 PUSH2 0x1A65 JUMP JUMPDEST PUSH32 0x176F203DF400D7BD5F1B1C9EF36C16709BF3B5D9FD35F000A6BAE32393F66C3 DUP2 CALLER PUSH1 0x40 MLOAD PUSH2 0xEBF SWAP3 SWAP2 SWAP1 PUSH2 0x37D7 JUMP JUMPDEST PUSH1 0x40 MLOAD DUP1 SWAP2 SUB SWAP1 LOG1 JUMPDEST POP DUP1 DUP1 PUSH2 0xED4 SWAP1 PUSH2 0x3AD2 JUMP JUMPDEST SWAP2 POP POP PUSH2 0xE4C JUMP JUMPDEST POP POP JUMP JUMPDEST PUSH2 0xEE8 PUSH2 0x1AEF JUMP JUMPDEST PUSH20 0xFFFFFFFFFFFFFFFFFFFFFFFFFFFFFFFFFFFFFFFF AND PUSH2 0xF06 PUSH2 0x1522 JUMP JUMPDEST PUSH20 0xFFFFFFFFFFFFFFFFFFFFFFFFFFFFFFFFFFFFFFFF AND EQ PUSH2 0xF5C JUMPI PUSH1 0x40 MLOAD PUSH32 0x8C379A000000000000000000000000000000000000000000000000000000000 DUP2 MSTORE PUSH1 0x4 ADD PUSH2 0xF53 SWAP1 PUSH2 0x371C JUMP JUMPDEST PUSH1 0x40 MLOAD DUP1 SWAP2 SUB SWAP1 REVERT JUMPDEST PUSH1 0x0 PUSH2 0xF66 PUSH2 0x1522 JUMP JUMPDEST PUSH20 0xFFFFFFFFFFFFFFFFFFFFFFFFFFFFFFFFFFFFFFFF AND SELFBALANCE PUSH1 0x40 MLOAD PUSH2 0xF89 SWAP1 PUSH2 0x3463 JUMP JUMPDEST PUSH1 0x0 PUSH1 0x40 MLOAD DUP1 DUP4 SUB DUP2 DUP6 DUP8 GAS CALL SWAP3 POP POP POP RETURNDATASIZE DUP1 PUSH1 0x0 DUP2 EQ PUSH2 0xFC6 JUMPI PUSH1 0x40 MLOAD SWAP2 POP PUSH1 0x1F NOT PUSH1 0x3F RETURNDATASIZE ADD AND DUP3 ADD PUSH1 0x40 MSTORE RETURNDATASIZE DUP3 MSTORE RETURNDATASIZE PUSH1 0x0 PUSH1 0x20 DUP5 ADD RETURNDATACOPY PUSH2 0xFCB JUMP JUMPDEST PUSH1 0x60 SWAP2 POP JUMPDEST POP POP SWAP1 POP DUP1 PUSH2 0xFD9 JUMPI PUSH1 0x0 DUP1 REVERT JUMPDEST POP JUMP JUMPDEST PUSH2 0xFF7 DUP4 DUP4 DUP4 PUSH1 0x40 MLOAD DUP1 PUSH1 0x20 ADD PUSH1 0x40 MSTORE DUP1 PUSH1 0x0 DUP2 MSTORE POP PUSH2 0x167A JUMP JUMPDEST POP POP POP JUMP JUMPDEST PUSH1 0x0 PUSH2 0x1006 PUSH2 0xC26 JUMP JUMPDEST DUP3 LT PUSH2 0x1047 JUMPI PUSH1 0x40 MLOAD PUSH32 0x8C379A000000000000000000000000000000000000000000000000000000000 DUP2 MSTORE PUSH1 0x4 ADD PUSH2 0x103E SWAP1 PUSH2 0x379C JUMP JUMPDEST PUSH1 0x40 MLOAD DUP1 SWAP2 SUB SWAP1 REVERT JUMPDEST PUSH1 0x9 DUP3 DUP2 SLOAD DUP2 LT PUSH2 0x1081 JUMPI PUSH32 0x4E487B7100000000000000000000000000000000000000000000000000000000 PUSH1 0x0 MSTORE PUSH1 0x32 PUSH1 0x4 MSTORE PUSH1 0x24 PUSH1 0x0 REVERT JUMPDEST SWAP1 PUSH1 0x0 MSTORE PUSH1 0x20 PUSH1 0x0 KECCAK256 ADD SLOAD SWAP1 POP SWAP2 SWAP1 POP JUMP JUMPDEST PUSH2 0x109B PUSH2 0x1AEF JUMP JUMPDEST PUSH20 0xFFFFFFFFFFFFFFFFFFFFFFFFFFFFFFFFFFFFFFFF AND PUSH2 0x10B9 PUSH2 0x1522 JUMP JUMPDEST PUSH20 0xFFFFFFFFFFFFFFFFFFFFFFFFFFFFFFFFFFFFFFFF AND EQ PUSH2 0x110F JUMPI PUSH1 0x40 MLOAD PUSH32 0x8C379A000000000000000000000000000000000000000000000000000000000 DUP2 MSTORE PUSH1 0x4 ADD PUSH2 0x1106 SWAP1 PUSH2 0x371C JUMP JUMPDEST PUSH1 0x40 MLOAD DUP1 SWAP2 SUB SWAP1 REVERT JUMPDEST DUP1 PUSH1 0xE SWAP1 DUP1 MLOAD SWAP1 PUSH1 0x20 ADD SWAP1 PUSH2 0x1125 SWAP3 SWAP2 SWAP1 PUSH2 0x2C0D JUMP JUMPDEST POP POP JUMP JUMPDEST PUSH1 0x0 DUP1 PUSH1 0x2 PUSH1 0x0 DUP5 DUP2 MSTORE PUSH1 0x20 ADD SWAP1 DUP2 MSTORE PUSH1 0x20 ADD PUSH1 0x0 KECCAK256 PUSH1 0x0 SWAP1 SLOAD SWAP1 PUSH2 0x100 EXP SWAP1 DIV PUSH20 0xFFFFFFFFFFFFFFFFFFFFFFFFFFFFFFFFFFFFFFFF AND SWAP1 POP PUSH1 0x0 PUSH20 0xFFFFFFFFFFFFFFFFFFFFFFFFFFFFFFFFFFFFFFFF AND DUP2 PUSH20 0xFFFFFFFFFFFFFFFFFFFFFFFFFFFFFFFFFFFFFFFF AND EQ ISZERO PUSH2 0x11D2 JUMPI PUSH1 0x40 MLOAD PUSH32 0x8C379A000000000000000000000000000000000000000000000000000000000 DUP2 MSTORE PUSH1 0x4 ADD PUSH2 0x11C9 SWAP1 PUSH2 0x369C JUMP JUMPDEST PUSH1 0x40 MLOAD DUP1 SWAP2 SUB SWAP1 REVERT JUMPDEST DUP1 SWAP2 POP POP SWAP2 SWAP1 POP JUMP JUMPDEST PUSH1 0xE DUP1 SLOAD PUSH2 0x11E8 SWAP1 PUSH2 0x3A6F JUMP JUMPDEST DUP1 PUSH1 0x1F ADD PUSH1 0x20 DUP1 SWAP2 DIV MUL PUSH1 0x20 ADD PUSH1 0x40 MLOAD SWAP1 DUP2 ADD PUSH1 0x40 MSTORE DUP1 SWAP3 SWAP2 SWAP1 DUP2 DUP2 MSTORE PUSH1 0x20 ADD DUP3 DUP1 SLOAD PUSH2 0x1214 SWAP1 PUSH2 0x3A6F JUMP JUMPDEST DUP1 ISZERO PUSH2 0x1261 JUMPI DUP1 PUSH1 0x1F LT PUSH2 0x1236 JUMPI PUSH2 0x100 DUP1 DUP4 SLOAD DIV MUL DUP4 MSTORE SWAP2 PUSH1 0x20 ADD SWAP2 PUSH2 0x1261 JUMP JUMPDEST DUP3 ADD SWAP2 SWAP1 PUSH1 0x0 MSTORE PUSH1 0x20 PUSH1 0x0 KECCAK256 SWAP1 JUMPDEST DUP2 SLOAD DUP2 MSTORE SWAP1 PUSH1 0x1 ADD SWAP1 PUSH1 0x20 ADD DUP1 DUP4 GT PUSH2 0x1244 JUMPI DUP3 SWAP1 SUB PUSH1 0x1F AND DUP3 ADD SWAP2 JUMPDEST POP POP POP POP POP DUP2 JUMP JUMPDEST PUSH1 0x0 DUP1 PUSH20 0xFFFFFFFFFFFFFFFFFFFFFFFFFFFFFFFFFFFFFFFF AND DUP3 PUSH20 0xFFFFFFFFFFFFFFFFFFFFFFFFFFFFFFFFFFFFFFFF AND EQ ISZERO PUSH2 0x12DA JUMPI PUSH1 0x40 MLOAD PUSH32 0x8C379A000000000000000000000000000000000000000000000000000000000 DUP2 MSTORE PUSH1 0x4 ADD PUSH2 0x12D1 SWAP1 PUSH2 0x367C JUMP JUMPDEST PUSH1 0x40 MLOAD DUP1 SWAP2 SUB SWAP1 REVERT JUMPDEST PUSH1 0x3 PUSH1 0x0 DUP4 PUSH20 0xFFFFFFFFFFFFFFFFFFFFFFFFFFFFFFFFFFFFFFFF AND PUSH20 0xFFFFFFFFFFFFFFFFFFFFFFFFFFFFFFFFFFFFFFFF AND DUP2 MSTORE PUSH1 0x20 ADD SWAP1 DUP2 MSTORE PUSH1 0x20 ADD PUSH1 0x0 KECCAK256 SLOAD SWAP1 POP SWAP2 SWAP1 POP JUMP JUMPDEST PUSH2 0x1329 PUSH2 0x1AEF JUMP JUMPDEST PUSH20 0xFFFFFFFFFFFFFFFFFFFFFFFFFFFFFFFFFFFFFFFF AND PUSH2 0x1347 PUSH2 0x1522 JUMP JUMPDEST PUSH20 0xFFFFFFFFFFFFFFFFFFFFFFFFFFFFFFFFFFFFFFFF AND EQ PUSH2 0x139D JUMPI PUSH1 0x40 MLOAD PUSH32 0x8C379A000000000000000000000000000000000000000000000000000000000 DUP2 MSTORE PUSH1 0x4 ADD PUSH2 0x1394 SWAP1 PUSH2 0x371C JUMP JUMPDEST PUSH1 0x40 MLOAD DUP1 SWAP2 SUB SWAP1 REVERT JUMPDEST PUSH2 0x13A7 PUSH1 0x0 PUSH2 0x1F0B JUMP JUMPDEST JUMP JUMPDEST PUSH1 0xB SLOAD DUP2 JUMP JUMPDEST PUSH2 0x13B7 PUSH2 0x1AEF JUMP JUMPDEST PUSH20 0xFFFFFFFFFFFFFFFFFFFFFFFFFFFFFFFFFFFFFFFF AND PUSH2 0x13D5 PUSH2 0x1522 JUMP JUMPDEST PUSH20 0xFFFFFFFFFFFFFFFFFFFFFFFFFFFFFFFFFFFFFFFF AND EQ PUSH2 0x142B JUMPI PUSH1 0x40 MLOAD PUSH32 0x8C379A000000000000000000000000000000000000000000000000000000000 DUP2 MSTORE PUSH1 0x4 ADD PUSH2 0x1422 SWAP1 PUSH2 0x371C JUMP JUMPDEST PUSH1 0x40 MLOAD DUP1 SWAP2 SUB SWAP1 REVERT JUMPDEST PUSH1 0xD SLOAD PUSH2 0x1449 PUSH1 0x1 PUSH2 0x143B PUSH2 0xC26 JUMP JUMPDEST PUSH2 0x1A4F SWAP1 SWAP2 SWAP1 PUSH4 0xFFFFFFFF AND JUMP JUMPDEST GT ISZERO PUSH2 0x148A JUMPI PUSH1 0x40 MLOAD PUSH32 0x8C379A000000000000000000000000000000000000000000000000000000000 DUP2 MSTORE PUSH1 0x4 ADD PUSH2 0x1481 SWAP1 PUSH2 0x36BC JUMP JUMPDEST PUSH1 0x40 MLOAD DUP1 SWAP2 SUB SWAP1 REVERT JUMPDEST PUSH1 0x0 JUMPDEST DUP2 DUP2 LT ISZERO PUSH2 0x151D JUMPI PUSH1 0x0 PUSH2 0x14B2 PUSH1 0x1 PUSH2 0x14A4 PUSH2 0xC26 JUMP JUMPDEST PUSH2 0x1A4F SWAP1 SWAP2 SWAP1 PUSH4 0xFFFFFFFF AND JUMP JUMPDEST SWAP1 POP PUSH1 0xD SLOAD PUSH2 0x14BF PUSH2 0xC26 JUMP JUMPDEST LT ISZERO PUSH2 0x1509 JUMPI PUSH2 0x14CF DUP5 DUP3 PUSH2 0x1A65 JUMP JUMPDEST PUSH32 0x176F203DF400D7BD5F1B1C9EF36C16709BF3B5D9FD35F000A6BAE32393F66C3 DUP2 DUP6 PUSH1 0x40 MLOAD PUSH2 0x1500 SWAP3 SWAP2 SWAP1 PUSH2 0x37D7 JUMP JUMPDEST PUSH1 0x40 MLOAD DUP1 SWAP2 SUB SWAP1 LOG1 JUMPDEST POP DUP1 DUP1 PUSH2 0x1515 SWAP1 PUSH2 0x3AD2 JUMP JUMPDEST SWAP2 POP POP PUSH2 0x148D JUMP JUMPDEST POP POP POP JUMP JUMPDEST PUSH1 0x0 PUSH1 0x6 PUSH1 0x0 SWAP1 SLOAD SWAP1 PUSH2 0x100 EXP SWAP1 DIV PUSH20 0xFFFFFFFFFFFFFFFFFFFFFFFFFFFFFFFFFFFFFFFF AND SWAP1 POP SWAP1 JUMP JUMPDEST PUSH2 0x1554 PUSH2 0x1AEF JUMP JUMPDEST PUSH20 0xFFFFFFFFFFFFFFFFFFFFFFFFFFFFFFFFFFFFFFFF AND PUSH2 0x1572 PUSH2 0x1522 JUMP JUMPDEST PUSH20 0xFFFFFFFFFFFFFFFFFFFFFFFFFFFFFFFFFFFFFFFF AND EQ PUSH2 0x15C8 JUMPI PUSH1 0x40 MLOAD PUSH32 0x8C379A000000000000000000000000000000000000000000000000000000000 DUP2 MSTORE PUSH1 0x4 ADD PUSH2 0x15BF SWAP1 PUSH2 0x371C JUMP JUMPDEST PUSH1 0x40 MLOAD DUP1 SWAP2 SUB SWAP1 REVERT JUMPDEST DUP1 PUSH1 0xB DUP2 SWAP1 SSTORE POP POP JUMP JUMPDEST PUSH1 0x60 PUSH1 0x1 DUP1 SLOAD PUSH2 0x15E1 SWAP1 PUSH2 0x3A6F JUMP JUMPDEST DUP1 PUSH1 0x1F ADD PUSH1 0x20 DUP1 SWAP2 DIV MUL PUSH1 0x20 ADD PUSH1 0x40 MLOAD SWAP1 DUP2 ADD PUSH1 0x40 MSTORE DUP1 SWAP3 SWAP2 SWAP1 DUP2 DUP2 MSTORE PUSH1 0x20 ADD DUP3 DUP1 SLOAD PUSH2 0x160D SWAP1 PUSH2 0x3A6F JUMP JUMPDEST DUP1 ISZERO PUSH2 0x165A JUMPI DUP1 PUSH1 0x1F LT PUSH2 0x162F JUMPI PUSH2 0x100 DUP1 DUP4 SLOAD DIV MUL DUP4 MSTORE SWAP2 PUSH1 0x20 ADD SWAP2 PUSH2 0x165A JUMP JUMPDEST DUP3 ADD SWAP2 SWAP1 PUSH1 0x0 MSTORE PUSH1 0x20 PUSH1 0x0 KECCAK256 SWAP1 JUMPDEST DUP2 SLOAD DUP2 MSTORE SWAP1 PUSH1 0x1 ADD SWAP1 PUSH1 0x20 ADD DUP1 DUP4 GT PUSH2 0x163D JUMPI DUP3 SWAP1 SUB PUSH1 0x1F AND DUP3 ADD SWAP2 JUMPDEST POP POP POP POP POP SWAP1 POP SWAP1 JUMP JUMPDEST PUSH2 0x1676 PUSH2 0x166F PUSH2 0x1AEF JUMP JUMPDEST DUP4 DUP4 PUSH2 0x1FD1 JUMP JUMPDEST POP POP JUMP JUMPDEST PUSH2 0x168B PUSH2 0x1685 PUSH2 0x1AEF JUMP JUMPDEST DUP4 PUSH2 0x1BB0 JUMP JUMPDEST PUSH2 0x16CA JUMPI PUSH1 0x40 MLOAD PUSH32 0x8C379A000000000000000000000000000000000000000000000000000000000 DUP2 MSTORE PUSH1 0x4 ADD PUSH2 0x16C1 SWAP1 PUSH2 0x377C JUMP JUMPDEST PUSH1 0x40 MLOAD DUP1 SWAP2 SUB SWAP1 REVERT JUMPDEST PUSH2 0x16D6 DUP5 DUP5 DUP5 DUP5 PUSH2 0x213E JUMP JUMPDEST POP POP POP POP JUMP JUMPDEST PUSH1 0x60 PUSH2 0x16E7 DUP3 PUSH2 0x1A83 JUMP JUMPDEST PUSH2 0x1726 JUMPI PUSH1 0x40 MLOAD PUSH32 0x8C379A000000000000000000000000000000000000000000000000000000000 DUP2 MSTORE PUSH1 0x4 ADD PUSH2 0x171D SWAP1 PUSH2 0x373C JUMP JUMPDEST PUSH1 0x40 MLOAD DUP1 SWAP2 SUB SWAP1 REVERT JUMPDEST PUSH1 0x0 PUSH2 0x1730 PUSH2 0x219A JUMP JUMPDEST SWAP1 POP PUSH1 0x0 DUP2 MLOAD GT PUSH2 0x1750 JUMPI PUSH1 0x40 MLOAD DUP1 PUSH1 0x20 ADD PUSH1 0x40 MSTORE DUP1 PUSH1 0x0 DUP2 MSTORE POP PUSH2 0x1771 JUMP JUMPDEST DUP1 PUSH1 0x40 MLOAD PUSH1 0x20 ADD PUSH2 0x1761 SWAP2 SWAP1 PUSH2 0x3441 JUMP JUMPDEST PUSH1 0x40 MLOAD PUSH1 0x20 DUP2 DUP4 SUB SUB DUP2 MSTORE SWAP1 PUSH1 0x40 MSTORE JUMPDEST SWAP2 POP POP SWAP2 SWAP1 POP JUMP JUMPDEST PUSH1 0x0 PUSH2 0x1783 PUSH2 0xC26 JUMP JUMPDEST SWAP1 POP SWAP1 JUMP JUMPDEST PUSH2 0x1790 PUSH2 0x1AEF JUMP JUMPDEST PUSH20 0xFFFFFFFFFFFFFFFFFFFFFFFFFFFFFFFFFFFFFFFF AND PUSH2 0x17AE PUSH2 0x1522 JUMP JUMPDEST PUSH20 0xFFFFFFFFFFFFFFFFFFFFFFFFFFFFFFFFFFFFFFFF AND EQ PUSH2 0x1804 JUMPI PUSH1 0x40 MLOAD PUSH32 0x8C379A000000000000000000000000000000000000000000000000000000000 DUP2 MSTORE PUSH1 0x4 ADD PUSH2 0x17FB SWAP1 PUSH2 0x371C JUMP JUMPDEST PUSH1 0x40 MLOAD DUP1 SWAP2 SUB SWAP1 REVERT JUMPDEST PUSH1 0xF PUSH1 0x0 SWAP1 SLOAD SWAP1 PUSH2 0x100 EXP SWAP1 DIV PUSH1 0xFF AND ISZERO PUSH1 0xF PUSH1 0x0 PUSH2 0x100 EXP DUP2 SLOAD DUP2 PUSH1 0xFF MUL NOT AND SWAP1 DUP4 ISZERO ISZERO MUL OR SWAP1 SSTORE POP JUMP JUMPDEST PUSH1 0x0 PUSH1 0x5 PUSH1 0x0 DUP5 PUSH20 0xFFFFFFFFFFFFFFFFFFFFFFFFFFFFFFFFFFFFFFFF AND PUSH20 0xFFFFFFFFFFFFFFFFFFFFFFFFFFFFFFFFFFFFFFFF AND DUP2 MSTORE PUSH1 0x20 ADD SWAP1 DUP2 MSTORE PUSH1 0x20 ADD PUSH1 0x0 KECCAK256 PUSH1 0x0 DUP4 PUSH20 0xFFFFFFFFFFFFFFFFFFFFFFFFFFFFFFFFFFFFFFFF AND PUSH20 0xFFFFFFFFFFFFFFFFFFFFFFFFFFFFFFFFFFFFFFFF AND DUP2 MSTORE PUSH1 0x20 ADD SWAP1 DUP2 MSTORE PUSH1 0x20 ADD PUSH1 0x0 KECCAK256 PUSH1 0x0 SWAP1 SLOAD SWAP1 PUSH2 0x100 EXP SWAP1 DIV PUSH1 0xFF AND SWAP1 POP SWAP3 SWAP2 POP POP JUMP JUMPDEST PUSH1 0xF PUSH1 0x0 SWAP1 SLOAD SWAP1 PUSH2 0x100 EXP SWAP1 DIV PUSH1 0xFF AND DUP2 JUMP JUMPDEST PUSH2 0x18DF PUSH2 0x1AEF JUMP JUMPDEST PUSH20 0xFFFFFFFFFFFFFFFFFFFFFFFFFFFFFFFFFFFFFFFF AND PUSH2 0x18FD PUSH2 0x1522 JUMP JUMPDEST PUSH20 0xFFFFFFFFFFFFFFFFFFFFFFFFFFFFFFFFFFFFFFFF AND EQ PUSH2 0x1953 JUMPI PUSH1 0x40 MLOAD PUSH32 0x8C379A000000000000000000000000000000000000000000000000000000000 DUP2 MSTORE PUSH1 0x4 ADD PUSH2 0x194A SWAP1 PUSH2 0x371C JUMP JUMPDEST PUSH1 0x40 MLOAD DUP1 SWAP2 SUB SWAP1 REVERT JUMPDEST PUSH1 0x0 PUSH20 0xFFFFFFFFFFFFFFFFFFFFFFFFFFFFFFFFFFFFFFFF AND DUP2 PUSH20 0xFFFFFFFFFFFFFFFFFFFFFFFFFFFFFFFFFFFFFFFF AND EQ ISZERO PUSH2 0x19C3 JUMPI PUSH1 0x40 MLOAD PUSH32 0x8C379A000000000000000000000000000000000000000000000000000000000 DUP2 MSTORE PUSH1 0x4 ADD PUSH2 0x19BA SWAP1 PUSH2 0x357C JUMP JUMPDEST PUSH1 0x40 MLOAD DUP1 SWAP2 SUB SWAP1 REVERT JUMPDEST PUSH2 0x19CC DUP2 PUSH2 0x1F0B JUMP JUMPDEST POP JUMP JUMPDEST PUSH1 0xD SLOAD DUP2 JUMP JUMPDEST PUSH1 0x0 PUSH32 0x780E9D6300000000000000000000000000000000000000000000000000000000 PUSH28 0xFFFFFFFFFFFFFFFFFFFFFFFFFFFFFFFFFFFFFFFFFFFFFFFFFFFFFFFF NOT AND DUP3 PUSH28 0xFFFFFFFFFFFFFFFFFFFFFFFFFFFFFFFFFFFFFFFFFFFFFFFFFFFFFFFF NOT AND EQ DUP1 PUSH2 0x1A48 JUMPI POP PUSH2 0x1A47 DUP3 PUSH2 0x222C JUMP JUMPDEST JUMPDEST SWAP1 POP SWAP2 SWAP1 POP JUMP JUMPDEST PUSH1 0x0 DUP2 DUP4 PUSH2 0x1A5D SWAP2 SWAP1 PUSH2 0x38D5 JUMP JUMPDEST SWAP1 POP SWAP3 SWAP2 POP POP JUMP JUMPDEST PUSH2 0x1A7F DUP3 DUP3 PUSH1 0x40 MLOAD DUP1 PUSH1 0x20 ADD PUSH1 0x40 MSTORE DUP1 PUSH1 0x0 DUP2 MSTORE POP PUSH2 0x230E JUMP JUMPDEST POP POP JUMP JUMPDEST PUSH1 0x0 DUP1 PUSH20 0xFFFFFFFFFFFFFFFFFFFFFFFFFFFFFFFFFFFFFFFF AND PUSH1 0x2 PUSH1 0x0 DUP5 DUP2 MSTORE PUSH1 0x20 ADD SWAP1 DUP2 MSTORE PUSH1 0x20 ADD PUSH1 0x0 KECCAK256 PUSH1 0x0 SWAP1 SLOAD SWAP1 PUSH2 0x100 EXP SWAP1 DIV PUSH20 0xFFFFFFFFFFFFFFFFFFFFFFFFFFFFFFFFFFFFFFFF AND PUSH20 0xFFFFFFFFFFFFFFFFFFFFFFFFFFFFFFFFFFFFFFFF AND EQ ISZERO SWAP1 POP SWAP2 SWAP1 POP JUMP JUMPDEST PUSH1 0x0 CALLER SWAP1 POP SWAP1 JUMP JUMPDEST DUP2 PUSH1 0x4 PUSH1 0x0 DUP4 DUP2 MSTORE PUSH1 0x20 ADD SWAP1 DUP2 MSTORE PUSH1 0x20 ADD PUSH1 0x0 KECCAK256 PUSH1 0x0 PUSH2 0x100 EXP DUP2 SLOAD DUP2 PUSH20 0xFFFFFFFFFFFFFFFFFFFFFFFFFFFFFFFFFFFFFFFF MUL NOT AND SWAP1 DUP4 PUSH20 0xFFFFFFFFFFFFFFFFFFFFFFFFFFFFFFFFFFFFFFFF AND MUL OR SWAP1 SSTORE POP DUP1 DUP3 PUSH20 0xFFFFFFFFFFFFFFFFFFFFFFFFFFFFFFFFFFFFFFFF AND PUSH2 0x1B6A DUP4 PUSH2 0x1129 JUMP JUMPDEST PUSH20 0xFFFFFFFFFFFFFFFFFFFFFFFFFFFFFFFFFFFFFFFF AND PUSH32 0x8C5BE1E5EBEC7D5BD14F71427D1E84F3DD0314C0F7B2291E5B200AC8C7C3B925 PUSH1 0x40 MLOAD PUSH1 0x40 MLOAD DUP1 SWAP2 SUB SWAP1 LOG4 POP POP JUMP JUMPDEST PUSH1 0x0 PUSH2 0x1BBB DUP3 PUSH2 0x1A83 JUMP JUMPDEST PUSH2 0x1BFA JUMPI PUSH1 0x40 MLOAD PUSH32 0x8C379A000000000000000000000000000000000000000000000000000000000 DUP2 MSTORE PUSH1 0x4 ADD PUSH2 0x1BF1 SWAP1 PUSH2 0x363C JUMP JUMPDEST PUSH1 0x40 MLOAD DUP1 SWAP2 SUB SWAP1 REVERT JUMPDEST PUSH1 0x0 PUSH2 0x1C05 DUP4 PUSH2 0x1129 JUMP JUMPDEST SWAP1 POP DUP1 PUSH20 0xFFFFFFFFFFFFFFFFFFFFFFFFFFFFFFFFFFFFFFFF AND DUP5 PUSH20 0xFFFFFFFFFFFFFFFFFFFFFFFFFFFFFFFFFFFFFFFF AND EQ DUP1 PUSH2 0x1C74 JUMPI POP DUP4 PUSH20 0xFFFFFFFFFFFFFFFFFFFFFFFFFFFFFFFFFFFFFFFF AND PUSH2 0x1C5C DUP5 PUSH2 0x93A JUMP JUMPDEST PUSH20 0xFFFFFFFFFFFFFFFFFFFFFFFFFFFFFFFFFFFFFFFF AND EQ JUMPDEST DUP1 PUSH2 0x1C85 JUMPI POP PUSH2 0x1C84 DUP2 DUP6 PUSH2 0x1830 JUMP JUMPDEST JUMPDEST SWAP2 POP POP SWAP3 SWAP2 POP POP JUMP JUMPDEST DUP3 PUSH20 0xFFFFFFFFFFFFFFFFFFFFFFFFFFFFFFFFFFFFFFFF AND PUSH2 0x1CAE DUP3 PUSH2 0x1129 JUMP JUMPDEST PUSH20 0xFFFFFFFFFFFFFFFFFFFFFFFFFFFFFFFFFFFFFFFF AND EQ PUSH2 0x1D04 JUMPI PUSH1 0x40 MLOAD PUSH32 0x8C379A000000000000000000000000000000000000000000000000000000000 DUP2 MSTORE PUSH1 0x4 ADD PUSH2 0x1CFB SWAP1 PUSH2 0x359C JUMP JUMPDEST PUSH1 0x40 MLOAD DUP1 SWAP2 SUB SWAP1 REVERT JUMPDEST PUSH1 0x0 PUSH20 0xFFFFFFFFFFFFFFFFFFFFFFFFFFFFFFFFFFFFFFFF AND DUP3 PUSH20 0xFFFFFFFFFFFFFFFFFFFFFFFFFFFFFFFFFFFFFFFF AND EQ ISZERO PUSH2 0x1D74 JUMPI PUSH1 0x40 MLOAD PUSH32 0x8C379A000000000000000000000000000000000000000000000000000000000 DUP2 MSTORE PUSH1 0x4 ADD PUSH2 0x1D6B SWAP1 PUSH2 0x35FC JUMP JUMPDEST PUSH1 0x40 MLOAD DUP1 SWAP2 SUB SWAP1 REVERT JUMPDEST PUSH2 0x1D7F DUP4 DUP4 DUP4 PUSH2 0x2369 JUMP JUMPDEST PUSH2 0x1D8A PUSH1 0x0 DUP3 PUSH2 0x1AF7 JUMP JUMPDEST PUSH1 0x1 PUSH1 0x3 PUSH1 0x0 DUP6 PUSH20 0xFFFFFFFFFFFFFFFFFFFFFFFFFFFFFFFFFFFFFFFF AND PUSH20 0xFFFFFFFFFFFFFFFFFFFFFFFFFFFFFFFFFFFFFFFF AND DUP2 MSTORE PUSH1 0x20 ADD SWAP1 DUP2 MSTORE PUSH1 0x20 ADD PUSH1 0x0 KECCAK256 PUSH1 0x0 DUP3 DUP3 SLOAD PUSH2 0x1DDA SWAP2 SWAP1 PUSH2 0x3985 JUMP JUMPDEST SWAP3 POP POP DUP2 SWAP1 SSTORE POP PUSH1 0x1 PUSH1 0x3 PUSH1 0x0 DUP5 PUSH20 0xFFFFFFFFFFFFFFFFFFFFFFFFFFFFFFFFFFFFFFFF AND PUSH20 0xFFFFFFFFFFFFFFFFFFFFFFFFFFFFFFFFFFFFFFFF AND DUP2 MSTORE PUSH1 0x20 ADD SWAP1 DUP2 MSTORE PUSH1 0x20 ADD PUSH1 0x0 KECCAK256 PUSH1 0x0 DUP3 DUP3 SLOAD PUSH2 0x1E31 SWAP2 SWAP1 PUSH2 0x38D5 JUMP JUMPDEST SWAP3 POP POP DUP2 SWAP1 SSTORE POP DUP2 PUSH1 0x2 PUSH1 0x0 DUP4 DUP2 MSTORE PUSH1 0x20 ADD SWAP1 DUP2 MSTORE PUSH1 0x20 ADD PUSH1 0x0 KECCAK256 PUSH1 0x0 PUSH2 0x100 EXP DUP2 SLOAD DUP2 PUSH20 0xFFFFFFFFFFFFFFFFFFFFFFFFFFFFFFFFFFFFFFFF MUL NOT AND SWAP1 DUP4 PUSH20 0xFFFFFFFFFFFFFFFFFFFFFFFFFFFFFFFFFFFFFFFF AND MUL OR SWAP1 SSTORE POP DUP1 DUP3 PUSH20 0xFFFFFFFFFFFFFFFFFFFFFFFFFFFFFFFFFFFFFFFF AND DUP5 PUSH20 0xFFFFFFFFFFFFFFFFFFFFFFFFFFFFFFFFFFFFFFFF AND PUSH32 0xDDF252AD1BE2C89B69C2B068FC378DAA952BA7F163C4A11628F55A4DF523B3EF PUSH1 0x40 MLOAD PUSH1 0x40 MLOAD DUP1 SWAP2 SUB SWAP1 LOG4 PUSH2 0x1EF0 DUP4 DUP4 DUP4 PUSH2 0x2379 JUMP JUMPDEST POP POP POP JUMP JUMPDEST PUSH1 0x0 DUP2 DUP4 PUSH2 0x1F03 SWAP2 SWAP1 PUSH2 0x392B JUMP JUMPDEST SWAP1 POP SWAP3 SWAP2 POP POP JUMP JUMPDEST PUSH1 0x0 PUSH1 0x6 PUSH1 0x0 SWAP1 SLOAD SWAP1 PUSH2 0x100 EXP SWAP1 DIV PUSH20 0xFFFFFFFFFFFFFFFFFFFFFFFFFFFFFFFFFFFFFFFF AND SWAP1 POP DUP2 PUSH1 0x6 PUSH1 0x0 PUSH2 0x100 EXP DUP2 SLOAD DUP2 PUSH20 0xFFFFFFFFFFFFFFFFFFFFFFFFFFFFFFFFFFFFFFFF MUL NOT AND SWAP1 DUP4 PUSH20 0xFFFFFFFFFFFFFFFFFFFFFFFFFFFFFFFFFFFFFFFF AND MUL OR SWAP1 SSTORE POP DUP2 PUSH20 0xFFFFFFFFFFFFFFFFFFFFFFFFFFFFFFFFFFFFFFFF AND DUP2 PUSH20 0xFFFFFFFFFFFFFFFFFFFFFFFFFFFFFFFFFFFFFFFF AND PUSH32 0x8BE0079C531659141344CD1FD0A4F28419497F9722A3DAAFE3B4186F6B6457E0 PUSH1 0x40 MLOAD PUSH1 0x40 MLOAD DUP1 SWAP2 SUB SWAP1 LOG3 POP POP JUMP JUMPDEST DUP2 PUSH20 0xFFFFFFFFFFFFFFFFFFFFFFFFFFFFFFFFFFFFFFFF AND DUP4 PUSH20 0xFFFFFFFFFFFFFFFFFFFFFFFFFFFFFFFFFFFFFFFF AND EQ ISZERO PUSH2 0x2040 JUMPI PUSH1 0x40 MLOAD PUSH32 0x8C379A000000000000000000000000000000000000000000000000000000000 DUP2 MSTORE PUSH1 0x4 ADD PUSH2 0x2037 SWAP1 PUSH2 0x361C JUMP JUMPDEST PUSH1 0x40 MLOAD DUP1 SWAP2 SUB SWAP1 REVERT JUMPDEST DUP1 PUSH1 0x5 PUSH1 0x0 DUP6 PUSH20 0xFFFFFFFFFFFFFFFFFFFFFFFFFFFFFFFFFFFFFFFF AND PUSH20 0xFFFFFFFFFFFFFFFFFFFFFFFFFFFFFFFFFFFFFFFF AND DUP2 MSTORE PUSH1 0x20 ADD SWAP1 DUP2 MSTORE PUSH1 0x20 ADD PUSH1 0x0 KECCAK256 PUSH1 0x0 DUP5 PUSH20 0xFFFFFFFFFFFFFFFFFFFFFFFFFFFFFFFFFFFFFFFF AND PUSH20 0xFFFFFFFFFFFFFFFFFFFFFFFFFFFFFFFFFFFFFFFF AND DUP2 MSTORE PUSH1 0x20 ADD SWAP1 DUP2 MSTORE PUSH1 0x20 ADD PUSH1 0x0 KECCAK256 PUSH1 0x0 PUSH2 0x100 EXP DUP2 SLOAD DUP2 PUSH1 0xFF MUL NOT AND SWAP1 DUP4 ISZERO ISZERO MUL OR SWAP1 SSTORE POP DUP2 PUSH20 0xFFFFFFFFFFFFFFFFFFFFFFFFFFFFFFFFFFFFFFFF AND DUP4 PUSH20 0xFFFFFFFFFFFFFFFFFFFFFFFFFFFFFFFFFFFFFFFF AND PUSH32 0x17307EAB39AB6107E8899845AD3D59BD9653F200F220920489CA2B5937696C31 DUP4 PUSH1 0x40 MLOAD PUSH2 0x2131 SWAP2 SWAP1 PUSH2 0x34DF JUMP JUMPDEST PUSH1 0x40 MLOAD DUP1 SWAP2 SUB SWAP1 LOG3 POP POP POP JUMP JUMPDEST PUSH2 0x2149 DUP5 DUP5 DUP5 PUSH2 0x1C8E JUMP JUMPDEST PUSH2 0x2155 DUP5 DUP5 DUP5 DUP5 PUSH2 0x237E JUMP JUMPDEST PUSH2 0x2194 JUMPI PUSH1 0x40 MLOAD PUSH32 0x8C379A000000000000000000000000000000000000000000000000000000000 DUP2 MSTORE PUSH1 0x4 ADD PUSH2 0x218B SWAP1 PUSH2 0x355C JUMP JUMPDEST PUSH1 0x40 MLOAD DUP1 SWAP2 SUB SWAP1 REVERT JUMPDEST POP POP POP POP JUMP JUMPDEST PUSH1 0x60 PUSH1 0xE DUP1 SLOAD PUSH2 0x21A9 SWAP1 PUSH2 0x3A6F JUMP JUMPDEST DUP1 PUSH1 0x1F ADD PUSH1 0x20 DUP1 SWAP2 DIV MUL PUSH1 0x20 ADD PUSH1 0x40 MLOAD SWAP1 DUP2 ADD PUSH1 0x40 MSTORE DUP1 SWAP3 SWAP2 SWAP1 DUP2 DUP2 MSTORE PUSH1 0x20 ADD DUP3 DUP1 SLOAD PUSH2 0x21D5 SWAP1 PUSH2 0x3A6F JUMP JUMPDEST DUP1 ISZERO PUSH2 0x2222 JUMPI DUP1 PUSH1 0x1F LT PUSH2 0x21F7 JUMPI PUSH2 0x100 DUP1 DUP4 SLOAD DIV MUL DUP4 MSTORE SWAP2 PUSH1 0x20 ADD SWAP2 PUSH2 0x2222 JUMP JUMPDEST DUP3 ADD SWAP2 SWAP1 PUSH1 0x0 MSTORE PUSH1 0x20 PUSH1 0x0 KECCAK256 SWAP1 JUMPDEST DUP2 SLOAD DUP2 MSTORE SWAP1 PUSH1 0x1 ADD SWAP1 PUSH1 0x20 ADD DUP1 DUP4 GT PUSH2 0x2205 JUMPI DUP3 SWAP1 SUB PUSH1 0x1F AND DUP3 ADD SWAP2 JUMPDEST POP POP POP POP POP SWAP1 POP SWAP1 JUMP JUMPDEST PUSH1 0x0 PUSH32 0x80AC58CD00000000000000000000000000000000000000000000000000000000 PUSH28 0xFFFFFFFFFFFFFFFFFFFFFFFFFFFFFFFFFFFFFFFFFFFFFFFFFFFFFFFF NOT AND DUP3 PUSH28 0xFFFFFFFFFFFFFFFFFFFFFFFFFFFFFFFFFFFFFFFFFFFFFFFFFFFFFFFF NOT AND EQ DUP1 PUSH2 0x22F7 JUMPI POP PUSH32 0x5B5E139F00000000000000000000000000000000000000000000000000000000 PUSH28 0xFFFFFFFFFFFFFFFFFFFFFFFFFFFFFFFFFFFFFFFFFFFFFFFFFFFFFFFF NOT AND DUP3 PUSH28 0xFFFFFFFFFFFFFFFFFFFFFFFFFFFFFFFFFFFFFFFFFFFFFFFFFFFFFFFF NOT AND EQ JUMPDEST DUP1 PUSH2 0x2307 JUMPI POP PUSH2 0x2306 DUP3 PUSH2 0x2515 JUMP JUMPDEST JUMPDEST SWAP1 POP SWAP2 SWAP1 POP JUMP JUMPDEST PUSH2 0x2318 DUP4 DUP4 PUSH2 0x257F JUMP JUMPDEST PUSH2 0x2325 PUSH1 0x0 DUP5 DUP5 DUP5 PUSH2 0x237E JUMP JUMPDEST PUSH2 0x2364 JUMPI PUSH1 0x40 MLOAD PUSH32 0x8C379A000000000000000000000000000000000000000000000000000000000 DUP2 MSTORE PUSH1 0x4 ADD PUSH2 0x235B SWAP1 PUSH2 0x355C JUMP JUMPDEST PUSH1 0x40 MLOAD DUP1 SWAP2 SUB SWAP1 REVERT JUMPDEST POP POP POP JUMP JUMPDEST PUSH2 0x2374 DUP4 DUP4 DUP4 PUSH2 0x2759 JUMP JUMPDEST POP POP POP JUMP JUMPDEST POP POP POP JUMP JUMPDEST PUSH1 0x0 PUSH2 0x239F DUP5 PUSH20 0xFFFFFFFFFFFFFFFFFFFFFFFFFFFFFFFFFFFFFFFF AND PUSH2 0x286D JUMP JUMPDEST ISZERO PUSH2 0x2508 JUMPI DUP4 PUSH20 0xFFFFFFFFFFFFFFFFFFFFFFFFFFFFFFFFFFFFFFFF AND PUSH4 0x150B7A02 PUSH2 0x23C8 PUSH2 0x1AEF JUMP JUMPDEST DUP8 DUP7 DUP7 PUSH1 0x40 MLOAD DUP6 PUSH4 0xFFFFFFFF AND PUSH1 0xE0 SHL DUP2 MSTORE PUSH1 0x4 ADD PUSH2 0x23EA SWAP5 SWAP4 SWAP3 SWAP2 SWAP1 PUSH2 0x3493 JUMP JUMPDEST PUSH1 0x20 PUSH1 0x40 MLOAD DUP1 DUP4 SUB DUP2 PUSH1 0x0 DUP8 DUP1 EXTCODESIZE ISZERO DUP1 ISZERO PUSH2 0x2404 JUMPI PUSH1 0x0 DUP1 REVERT JUMPDEST POP GAS CALL SWAP3 POP POP POP DUP1 ISZERO PUSH2 0x2435 JUMPI POP PUSH1 0x40 MLOAD RETURNDATASIZE PUSH1 0x1F NOT PUSH1 0x1F DUP3 ADD AND DUP3 ADD DUP1 PUSH1 0x40 MSTORE POP DUP2 ADD SWAP1 PUSH2 0x2432 SWAP2 SWAP1 PUSH2 0x2FB9 JUMP JUMPDEST PUSH1 0x1 JUMPDEST PUSH2 0x24B8 JUMPI RETURNDATASIZE DUP1 PUSH1 0x0 DUP2 EQ PUSH2 0x2465 JUMPI PUSH1 0x40 MLOAD SWAP2 POP PUSH1 0x1F NOT PUSH1 0x3F RETURNDATASIZE ADD AND DUP3 ADD PUSH1 0x40 MSTORE RETURNDATASIZE DUP3 MSTORE RETURNDATASIZE PUSH1 0x0 PUSH1 0x20 DUP5 ADD RETURNDATACOPY PUSH2 0x246A JUMP JUMPDEST PUSH1 0x60 SWAP2 POP JUMPDEST POP PUSH1 0x0 DUP2 MLOAD EQ ISZERO PUSH2 0x24B0 JUMPI PUSH1 0x40 MLOAD PUSH32 0x8C379A000000000000000000000000000000000000000000000000000000000 DUP2 MSTORE PUSH1 0x4 ADD PUSH2 0x24A7 SWAP1 PUSH2 0x355C JUMP JUMPDEST PUSH1 0x40 MLOAD DUP1 SWAP2 SUB SWAP1 REVERT JUMPDEST DUP1 MLOAD DUP2 PUSH1 0x20 ADD REVERT JUMPDEST PUSH4 0x150B7A02 PUSH1 0xE0 SHL PUSH28 0xFFFFFFFFFFFFFFFFFFFFFFFFFFFFFFFFFFFFFFFFFFFFFFFFFFFFFFFF NOT AND DUP2 PUSH28 0xFFFFFFFFFFFFFFFFFFFFFFFFFFFFFFFFFFFFFFFFFFFFFFFFFFFFFFFF NOT AND EQ SWAP2 POP POP PUSH2 0x250D JUMP JUMPDEST PUSH1 0x1 SWAP1 POP JUMPDEST SWAP5 SWAP4 POP POP POP POP JUMP JUMPDEST PUSH1 0x0 PUSH32 0x1FFC9A700000000000000000000000000000000000000000000000000000000 PUSH28 0xFFFFFFFFFFFFFFFFFFFFFFFFFFFFFFFFFFFFFFFFFFFFFFFFFFFFFFFF NOT AND DUP3 PUSH28 0xFFFFFFFFFFFFFFFFFFFFFFFFFFFFFFFFFFFFFFFFFFFFFFFFFFFFFFFF NOT AND EQ SWAP1 POP SWAP2 SWAP1 POP JUMP JUMPDEST PUSH1 0x0 PUSH20 0xFFFFFFFFFFFFFFFFFFFFFFFFFFFFFFFFFFFFFFFF AND DUP3 PUSH20 0xFFFFFFFFFFFFFFFFFFFFFFFFFFFFFFFFFFFFFFFF AND EQ ISZERO PUSH2 0x25EF JUMPI PUSH1 0x40 MLOAD PUSH32 0x8C379A000000000000000000000000000000000000000000000000000000000 DUP2 MSTORE PUSH1 0x4 ADD PUSH2 0x25E6 SWAP1 PUSH2 0x36DC JUMP JUMPDEST PUSH1 0x40 MLOAD DUP1 SWAP2 SUB SWAP1 REVERT JUMPDEST PUSH2 0x25F8 DUP2 PUSH2 0x1A83 JUMP JUMPDEST ISZERO PUSH2 0x2638 JUMPI PUSH1 0x40 MLOAD PUSH32 0x8C379A000000000000000000000000000000000000000000000000000000000 DUP2 MSTORE PUSH1 0x4 ADD PUSH2 0x262F SWAP1 PUSH2 0x35BC JUMP JUMPDEST PUSH1 0x40 MLOAD DUP1 SWAP2 SUB SWAP1 REVERT JUMPDEST PUSH2 0x2644 PUSH1 0x0 DUP4 DUP4 PUSH2 0x2369 JUMP JUMPDEST PUSH1 0x1 PUSH1 0x3 PUSH1 0x0 DUP5 PUSH20 0xFFFFFFFFFFFFFFFFFFFFFFFFFFFFFFFFFFFFFFFF AND PUSH20 0xFFFFFFFFFFFFFFFFFFFFFFFFFFFFFFFFFFFFFFFF AND DUP2 MSTORE PUSH1 0x20 ADD SWAP1 DUP2 MSTORE PUSH1 0x20 ADD PUSH1 0x0 KECCAK256 PUSH1 0x0 DUP3 DUP3 SLOAD PUSH2 0x2694 SWAP2 SWAP1 PUSH2 0x38D5 JUMP JUMPDEST SWAP3 POP POP DUP2 SWAP1 SSTORE POP DUP2 PUSH1 0x2 PUSH1 0x0 DUP4 DUP2 MSTORE PUSH1 0x20 ADD SWAP1 DUP2 MSTORE PUSH1 0x20 ADD PUSH1 0x0 KECCAK256 PUSH1 0x0 PUSH2 0x100 EXP DUP2 SLOAD DUP2 PUSH20 0xFFFFFFFFFFFFFFFFFFFFFFFFFFFFFFFFFFFFFFFF MUL NOT AND SWAP1 DUP4 PUSH20 0xFFFFFFFFFFFFFFFFFFFFFFFFFFFFFFFFFFFFFFFF AND MUL OR SWAP1 SSTORE POP DUP1 DUP3 PUSH20 0xFFFFFFFFFFFFFFFFFFFFFFFFFFFFFFFFFFFFFFFF AND PUSH1 0x0 PUSH20 0xFFFFFFFFFFFFFFFFFFFFFFFFFFFFFFFFFFFFFFFF AND PUSH32 0xDDF252AD1BE2C89B69C2B068FC378DAA952BA7F163C4A11628F55A4DF523B3EF PUSH1 0x40 MLOAD PUSH1 0x40 MLOAD DUP1 SWAP2 SUB SWAP1 LOG4 PUSH2 0x2755 PUSH1 0x0 DUP4 DUP4 PUSH2 0x2379 JUMP JUMPDEST POP POP JUMP JUMPDEST PUSH2 0x2764 DUP4 DUP4 DUP4 PUSH2 0x2890 JUMP JUMPDEST PUSH1 0x0 PUSH20 0xFFFFFFFFFFFFFFFFFFFFFFFFFFFFFFFFFFFFFFFF AND DUP4 PUSH20 0xFFFFFFFFFFFFFFFFFFFFFFFFFFFFFFFFFFFFFFFF AND EQ ISZERO PUSH2 0x27A7 JUMPI PUSH2 0x27A2 DUP2 PUSH2 0x2895 JUMP JUMPDEST PUSH2 0x27E6 JUMP JUMPDEST DUP2 PUSH20 0xFFFFFFFFFFFFFFFFFFFFFFFFFFFFFFFFFFFFFFFF AND DUP4 PUSH20 0xFFFFFFFFFFFFFFFFFFFFFFFFFFFFFFFFFFFFFFFF AND EQ PUSH2 0x27E5 JUMPI PUSH2 0x27E4 DUP4 DUP3 PUSH2 0x28DE JUMP JUMPDEST JUMPDEST JUMPDEST PUSH1 0x0 PUSH20 0xFFFFFFFFFFFFFFFFFFFFFFFFFFFFFFFFFFFFFFFF AND DUP3 PUSH20 0xFFFFFFFFFFFFFFFFFFFFFFFFFFFFFFFFFFFFFFFF AND EQ ISZERO PUSH2 0x2829 JUMPI PUSH2 0x2824 DUP2 PUSH2 0x2A4B JUMP JUMPDEST PUSH2 0x2868 JUMP JUMPDEST DUP3 PUSH20 0xFFFFFFFFFFFFFFFFFFFFFFFFFFFFFFFFFFFFFFFF AND DUP3 PUSH20 0xFFFFFFFFFFFFFFFFFFFFFFFFFFFFFFFFFFFFFFFF AND EQ PUSH2 0x2867 JUMPI PUSH2 0x2866 DUP3 DUP3 PUSH2 0x2B8E JUMP JUMPDEST JUMPDEST JUMPDEST POP POP POP JUMP JUMPDEST PUSH1 0x0 DUP1 DUP3 PUSH20 0xFFFFFFFFFFFFFFFFFFFFFFFFFFFFFFFFFFFFFFFF AND EXTCODESIZE GT SWAP1 POP SWAP2 SWAP1 POP JUMP JUMPDEST POP POP POP JUMP JUMPDEST PUSH1 0x9 DUP1 SLOAD SWAP1 POP PUSH1 0xA PUSH1 0x0 DUP4 DUP2 MSTORE PUSH1 0x20 ADD SWAP1 DUP2 MSTORE PUSH1 0x20 ADD PUSH1 0x0 KECCAK256 DUP2 SWAP1 SSTORE POP PUSH1 0x9 DUP2 SWAP1 DUP1 PUSH1 0x1 DUP2 SLOAD ADD DUP1 DUP3 SSTORE DUP1 SWAP2 POP POP PUSH1 0x1 SWAP1 SUB SWAP1 PUSH1 0x0 MSTORE PUSH1 0x20 PUSH1 0x0 KECCAK256 ADD PUSH1 0x0 SWAP1 SWAP2 SWAP1 SWAP2 SWAP1 SWAP2 POP SSTORE POP JUMP JUMPDEST PUSH1 0x0 PUSH1 0x1 PUSH2 0x28EB DUP5 PUSH2 0x1269 JUMP JUMPDEST PUSH2 0x28F5 SWAP2 SWAP1 PUSH2 0x3985 JUMP JUMPDEST SWAP1 POP PUSH1 0x0 PUSH1 0x8 PUSH1 0x0 DUP5 DUP2 MSTORE PUSH1 0x20 ADD SWAP1 DUP2 MSTORE PUSH1 0x20 ADD PUSH1 0x0 KECCAK256 SLOAD SWAP1 POP DUP2 DUP2 EQ PUSH2 0x29DA JUMPI PUSH1 0x0 PUSH1 0x7 PUSH1 0x0 DUP7 PUSH20 0xFFFFFFFFFFFFFFFFFFFFFFFFFFFFFFFFFFFFFFFF AND PUSH20 0xFFFFFFFFFFFFFFFFFFFFFFFFFFFFFFFFFFFFFFFF AND DUP2 MSTORE PUSH1 0x20 ADD SWAP1 DUP2 MSTORE PUSH1 0x20 ADD PUSH1 0x0 KECCAK256 PUSH1 0x0 DUP5 DUP2 MSTORE PUSH1 0x20 ADD SWAP1 DUP2 MSTORE PUSH1 0x20 ADD PUSH1 0x0 KECCAK256 SLOAD SWAP1 POP DUP1 PUSH1 0x7 PUSH1 0x0 DUP8 PUSH20 0xFFFFFFFFFFFFFFFFFFFFFFFFFFFFFFFFFFFFFFFF AND PUSH20 0xFFFFFFFFFFFFFFFFFFFFFFFFFFFFFFFFFFFFFFFF AND DUP2 MSTORE PUSH1 0x20 ADD SWAP1 DUP2 MSTORE PUSH1 0x20 ADD PUSH1 0x0 KECCAK256 PUSH1 0x0 DUP5 DUP2 MSTORE PUSH1 0x20 ADD SWAP1 DUP2 MSTORE PUSH1 0x20 ADD PUSH1 0x0 KECCAK256 DUP2 SWAP1 SSTORE POP DUP2 PUSH1 0x8 PUSH1 0x0 DUP4 DUP2 MSTORE PUSH1 0x20 ADD SWAP1 DUP2 MSTORE PUSH1 0x20 ADD PUSH1 0x0 KECCAK256 DUP2 SWAP1 SSTORE POP POP JUMPDEST PUSH1 0x8 PUSH1 0x0 DUP5 DUP2 MSTORE PUSH1 0x20 ADD SWAP1 DUP2 MSTORE PUSH1 0x20 ADD PUSH1 0x0 KECCAK256 PUSH1 0x0 SWAP1 SSTORE PUSH1 0x7 PUSH1 0x0 DUP6 PUSH20 0xFFFFFFFFFFFFFFFFFFFFFFFFFFFFFFFFFFFFFFFF AND PUSH20 0xFFFFFFFFFFFFFFFFFFFFFFFFFFFFFFFFFFFFFFFF AND DUP2 MSTORE PUSH1 0x20 ADD SWAP1 DUP2 MSTORE PUSH1 0x20 ADD PUSH1 0x0 KECCAK256 PUSH1 0x0 DUP4 DUP2 MSTORE PUSH1 0x20 ADD SWAP1 DUP2 MSTORE PUSH1 0x20 ADD PUSH1 0x0 KECCAK256 PUSH1 0x0 SWAP1 SSTORE POP POP POP POP JUMP JUMPDEST PUSH1 0x0 PUSH1 0x1 PUSH1 0x9 DUP1 SLOAD SWAP1 POP PUSH2 0x2A5F SWAP2 SWAP1 PUSH2 0x3985 JUMP JUMPDEST SWAP1 POP PUSH1 0x0 PUSH1 0xA PUSH1 0x0 DUP5 DUP2 MSTORE PUSH1 0x20 ADD SWAP1 DUP2 MSTORE PUSH1 0x20 ADD PUSH1 0x0 KECCAK256 SLOAD SWAP1 POP PUSH1 0x0 PUSH1 0x9 DUP4 DUP2 SLOAD DUP2 LT PUSH2 0x2AB5 JUMPI PUSH32 0x4E487B7100000000000000000000000000000000000000000000000000000000 PUSH1 0x0 MSTORE PUSH1 0x32 PUSH1 0x4 MSTORE PUSH1 0x24 PUSH1 0x0 REVERT JUMPDEST SWAP1 PUSH1 0x0 MSTORE PUSH1 0x20 PUSH1 0x0 KECCAK256 ADD SLOAD SWAP1 POP DUP1 PUSH1 0x9 DUP4 DUP2 SLOAD DUP2 LT PUSH2 0x2AFD JUMPI PUSH32 0x4E487B7100000000000000000000000000000000000000000000000000000000 PUSH1 0x0 MSTORE PUSH1 0x32 PUSH1 0x4 MSTORE PUSH1 0x24 PUSH1 0x0 REVERT JUMPDEST SWAP1 PUSH1 0x0 MSTORE PUSH1 0x20 PUSH1 0x0 KECCAK256 ADD DUP2 SWAP1 SSTORE POP DUP2 PUSH1 0xA PUSH1 0x0 DUP4 DUP2 MSTORE PUSH1 0x20 ADD SWAP1 DUP2 MSTORE PUSH1 0x20 ADD PUSH1 0x0 KECCAK256 DUP2 SWAP1 SSTORE POP PUSH1 0xA PUSH1 0x0 DUP6 DUP2 MSTORE PUSH1 0x20 ADD SWAP1 DUP2 MSTORE PUSH1 0x20 ADD PUSH1 0x0 KECCAK256 PUSH1 0x0 SWAP1 SSTORE PUSH1 0x9 DUP1 SLOAD DUP1 PUSH2 0x2B72 JUMPI PUSH32 0x4E487B7100000000000000000000000000000000000000000000000000000000 PUSH1 0x0 MSTORE PUSH1 0x31 PUSH1 0x4 MSTORE PUSH1 0x24 PUSH1 0x0 REVERT JUMPDEST PUSH1 0x1 SWAP1 SUB DUP2 DUP2 SWAP1 PUSH1 0x0 MSTORE PUSH1 0x20 PUSH1 0x0 KECCAK256 ADD PUSH1 0x0 SWAP1 SSTORE SWAP1 SSTORE POP POP POP POP JUMP JUMPDEST PUSH1 0x0 PUSH2 0x2B99 DUP4 PUSH2 0x1269 JUMP JUMPDEST SWAP1 POP DUP2 PUSH1 0x7 PUSH1 0x0 DUP6 PUSH20 0xFFFFFFFFFFFFFFFFFFFFFFFFFFFFFFFFFFFFFFFF AND PUSH20 0xFFFFFFFFFFFFFFFFFFFFFFFFFFFFFFFFFFFFFFFF AND DUP2 MSTORE PUSH1 0x20 ADD SWAP1 DUP2 MSTORE PUSH1 0x20 ADD PUSH1 0x0 KECCAK256 PUSH1 0x0 DUP4 DUP2 MSTORE PUSH1 0x20 ADD SWAP1 DUP2 MSTORE PUSH1 0x20 ADD PUSH1 0x0 KECCAK256 DUP2 SWAP1 SSTORE POP DUP1 PUSH1 0x8 PUSH1 0x0 DUP5 DUP2 MSTORE PUSH1 0x20 ADD SWAP1 DUP2 MSTORE PUSH1 0x20 ADD PUSH1 0x0 KECCAK256 DUP2 SWAP1 SSTORE POP POP POP POP JUMP JUMPDEST DUP3 DUP1 SLOAD PUSH2 0x2C19 SWAP1 PUSH2 0x3A6F JUMP JUMPDEST SWAP1 PUSH1 0x0 MSTORE PUSH1 0x20 PUSH1 0x0 KECCAK256 SWAP1 PUSH1 0x1F ADD PUSH1 0x20 SWAP1 DIV DUP2 ADD SWAP3 DUP3 PUSH2 0x2C3B JUMPI PUSH1 0x0 DUP6 SSTORE PUSH2 0x2C82 JUMP JUMPDEST DUP3 PUSH1 0x1F LT PUSH2 0x2C54 JUMPI DUP1 MLOAD PUSH1 0xFF NOT AND DUP4 DUP1 ADD OR DUP6 SSTORE PUSH2 0x2C82 JUMP JUMPDEST DUP3 DUP1 ADD PUSH1 0x1 ADD DUP6 SSTORE DUP3 ISZERO PUSH2 0x2C82 JUMPI SWAP2 DUP3 ADD JUMPDEST DUP3 DUP2 GT ISZERO PUSH2 0x2C81 JUMPI DUP3 MLOAD DUP3 SSTORE SWAP2 PUSH1 0x20 ADD SWAP2 SWAP1 PUSH1 0x1 ADD SWAP1 PUSH2 0x2C66 JUMP JUMPDEST JUMPDEST POP SWAP1 POP PUSH2 0x2C8F SWAP2 SWAP1 PUSH2 0x2C93 JUMP JUMPDEST POP SWAP1 JUMP JUMPDEST JUMPDEST DUP1 DUP3 GT ISZERO PUSH2 0x2CAC JUMPI PUSH1 0x0 DUP2 PUSH1 0x0 SWAP1 SSTORE POP PUSH1 0x1 ADD PUSH2 0x2C94 JUMP JUMPDEST POP SWAP1 JUMP JUMPDEST PUSH1 0x0 PUSH2 0x2CC3 PUSH2 0x2CBE DUP5 PUSH2 0x3825 JUMP JUMPDEST PUSH2 0x3800 JUMP JUMPDEST SWAP1 POP DUP3 DUP2 MSTORE PUSH1 0x20 DUP2 ADD DUP5 DUP5 DUP5 ADD GT ISZERO PUSH2 0x2CDB JUMPI PUSH1 0x0 DUP1 REVERT JUMPDEST PUSH2 0x2CE6 DUP5 DUP3 DUP6 PUSH2 0x3A2D JUMP JUMPDEST POP SWAP4 SWAP3 POP POP POP JUMP JUMPDEST PUSH1 0x0 PUSH2 0x2D01 PUSH2 0x2CFC DUP5 PUSH2 0x3856 JUMP JUMPDEST PUSH2 0x3800 JUMP JUMPDEST SWAP1 POP DUP3 DUP2 MSTORE PUSH1 0x20 DUP2 ADD DUP5 DUP5 DUP5 ADD GT ISZERO PUSH2 0x2D19 JUMPI PUSH1 0x0 DUP1 REVERT JUMPDEST PUSH2 0x2D24 DUP5 DUP3 DUP6 PUSH2 0x3A2D JUMP JUMPDEST POP SWAP4 SWAP3 POP POP POP JUMP JUMPDEST PUSH1 0x0 DUP2 CALLDATALOAD SWAP1 POP PUSH2 0x2D3B DUP2 PUSH2 0x41C8 JUMP JUMPDEST SWAP3 SWAP2 POP POP JUMP JUMPDEST PUSH1 0x0 DUP2 CALLDATALOAD SWAP1 POP PUSH2 0x2D50 DUP2 PUSH2 0x41DF JUMP JUMPDEST SWAP3 SWAP2 POP POP JUMP JUMPDEST PUSH1 0x0 DUP2 CALLDATALOAD SWAP1 POP PUSH2 0x2D65 DUP2 PUSH2 0x41F6 JUMP JUMPDEST SWAP3 SWAP2 POP POP JUMP JUMPDEST PUSH1 0x0 DUP2 MLOAD SWAP1 POP PUSH2 0x2D7A DUP2 PUSH2 0x41F6 JUMP JUMPDEST SWAP3 SWAP2 POP POP JUMP JUMPDEST PUSH1 0x0 DUP3 PUSH1 0x1F DUP4 ADD SLT PUSH2 0x2D91 JUMPI PUSH1 0x0 DUP1 REVERT JUMPDEST DUP2 CALLDATALOAD PUSH2 0x2DA1 DUP5 DUP3 PUSH1 0x20 DUP7 ADD PUSH2 0x2CB0 JUMP JUMPDEST SWAP2 POP POP SWAP3 SWAP2 POP POP JUMP JUMPDEST PUSH1 0x0 DUP3 PUSH1 0x1F DUP4 ADD SLT PUSH2 0x2DBB JUMPI PUSH1 0x0 DUP1 REVERT JUMPDEST DUP2 CALLDATALOAD PUSH2 0x2DCB DUP5 DUP3 PUSH1 0x20 DUP7 ADD PUSH2 0x2CEE JUMP JUMPDEST SWAP2 POP POP SWAP3 SWAP2 POP POP JUMP JUMPDEST PUSH1 0x0 DUP2 CALLDATALOAD SWAP1 POP PUSH2 0x2DE3 DUP2 PUSH2 0x420D JUMP JUMPDEST SWAP3 SWAP2 POP POP JUMP JUMPDEST PUSH1 0x0 PUSH1 0x20 DUP3 DUP5 SUB SLT ISZERO PUSH2 0x2DFB JUMPI PUSH1 0x0 DUP1 REVERT JUMPDEST PUSH1 0x0 PUSH2 0x2E09 DUP5 DUP3 DUP6 ADD PUSH2 0x2D2C JUMP JUMPDEST SWAP2 POP POP SWAP3 SWAP2 POP POP JUMP JUMPDEST PUSH1 0x0 DUP1 PUSH1 0x40 DUP4 DUP6 SUB SLT ISZERO PUSH2 0x2E25 JUMPI PUSH1 0x0 DUP1 REVERT JUMPDEST PUSH1 0x0 PUSH2 0x2E33 DUP6 DUP3 DUP7 ADD PUSH2 0x2D2C JUMP JUMPDEST SWAP3 POP POP PUSH1 0x20 PUSH2 0x2E44 DUP6 DUP3 DUP7 ADD PUSH2 0x2D2C JUMP JUMPDEST SWAP2 POP POP SWAP3 POP SWAP3 SWAP1 POP JUMP JUMPDEST PUSH1 0x0 DUP1 PUSH1 0x0 PUSH1 0x60 DUP5 DUP7 SUB SLT ISZERO PUSH2 0x2E63 JUMPI PUSH1 0x0 DUP1 REVERT JUMPDEST PUSH1 0x0 PUSH2 0x2E71 DUP7 DUP3 DUP8 ADD PUSH2 0x2D2C JUMP JUMPDEST SWAP4 POP POP PUSH1 0x20 PUSH2 0x2E82 DUP7 DUP3 DUP8 ADD PUSH2 0x2D2C JUMP JUMPDEST SWAP3 POP POP PUSH1 0x40 PUSH2 0x2E93 DUP7 DUP3 DUP8 ADD PUSH2 0x2DD4 JUMP JUMPDEST SWAP2 POP POP SWAP3 POP SWAP3 POP SWAP3 JUMP JUMPDEST PUSH1 0x0 DUP1 PUSH1 0x0 DUP1 PUSH1 0x80 DUP6 DUP8 SUB SLT ISZERO PUSH2 0x2EB3 JUMPI PUSH1 0x0 DUP1 REVERT JUMPDEST PUSH1 0x0 PUSH2 0x2EC1 DUP8 DUP3 DUP9 ADD PUSH2 0x2D2C JUMP JUMPDEST SWAP5 POP POP PUSH1 0x20 PUSH2 0x2ED2 DUP8 DUP3 DUP9 ADD PUSH2 0x2D2C JUMP JUMPDEST SWAP4 POP POP PUSH1 0x40 PUSH2 0x2EE3 DUP8 DUP3 DUP9 ADD PUSH2 0x2DD4 JUMP JUMPDEST SWAP3 POP POP PUSH1 0x60 DUP6 ADD CALLDATALOAD PUSH8 0xFFFFFFFFFFFFFFFF DUP2 GT ISZERO PUSH2 0x2F00 JUMPI PUSH1 0x0 DUP1 REVERT JUMPDEST PUSH2 0x2F0C DUP8 DUP3 DUP9 ADD PUSH2 0x2D80 JUMP JUMPDEST SWAP2 POP POP SWAP3 SWAP6 SWAP2 SWAP5 POP SWAP3 POP JUMP JUMPDEST PUSH1 0x0 DUP1 PUSH1 0x40 DUP4 DUP6 SUB SLT ISZERO PUSH2 0x2F2B JUMPI PUSH1 0x0 DUP1 REVERT JUMPDEST PUSH1 0x0 PUSH2 0x2F39 DUP6 DUP3 DUP7 ADD PUSH2 0x2D2C JUMP JUMPDEST SWAP3 POP POP PUSH1 0x20 PUSH2 0x2F4A DUP6 DUP3 DUP7 ADD PUSH2 0x2D41 JUMP JUMPDEST SWAP2 POP POP SWAP3 POP SWAP3 SWAP1 POP JUMP JUMPDEST PUSH1 0x0 DUP1 PUSH1 0x40 DUP4 DUP6 SUB SLT ISZERO PUSH2 0x2F67 JUMPI PUSH1 0x0 DUP1 REVERT JUMPDEST PUSH1 0x0 PUSH2 0x2F75 DUP6 DUP3 DUP7 ADD PUSH2 0x2D2C JUMP JUMPDEST SWAP3 POP POP PUSH1 0x20 PUSH2 0x2F86 DUP6 DUP3 DUP7 ADD PUSH2 0x2DD4 JUMP JUMPDEST SWAP2 POP POP SWAP3 POP SWAP3 SWAP1 POP JUMP JUMPDEST PUSH1 0x0 PUSH1 0x20 DUP3 DUP5 SUB SLT ISZERO PUSH2 0x2FA2 JUMPI PUSH1 0x0 DUP1 REVERT JUMPDEST PUSH1 0x0 PUSH2 0x2FB0 DUP5 DUP3 DUP6 ADD PUSH2 0x2D56 JUMP JUMPDEST SWAP2 POP POP SWAP3 SWAP2 POP POP JUMP JUMPDEST PUSH1 0x0 PUSH1 0x20 DUP3 DUP5 SUB SLT ISZERO PUSH2 0x2FCB JUMPI PUSH1 0x0 DUP1 REVERT JUMPDEST PUSH1 0x0 PUSH2 0x2FD9 DUP5 DUP3 DUP6 ADD PUSH2 0x2D6B JUMP JUMPDEST SWAP2 POP POP SWAP3 SWAP2 POP POP JUMP JUMPDEST PUSH1 0x0 PUSH1 0x20 DUP3 DUP5 SUB SLT ISZERO PUSH2 0x2FF4 JUMPI PUSH1 0x0 DUP1 REVERT JUMPDEST PUSH1 0x0 DUP3 ADD CALLDATALOAD PUSH8 0xFFFFFFFFFFFFFFFF DUP2 GT ISZERO PUSH2 0x300E JUMPI PUSH1 0x0 DUP1 REVERT JUMPDEST PUSH2 0x301A DUP5 DUP3 DUP6 ADD PUSH2 0x2DAA JUMP JUMPDEST SWAP2 POP POP SWAP3 SWAP2 POP POP JUMP JUMPDEST PUSH1 0x0 PUSH1 0x20 DUP3 DUP5 SUB SLT ISZERO PUSH2 0x3035 JUMPI PUSH1 0x0 DUP1 REVERT JUMPDEST PUSH1 0x0 PUSH2 0x3043 DUP5 DUP3 DUP6 ADD PUSH2 0x2DD4 JUMP JUMPDEST SWAP2 POP POP SWAP3 SWAP2 POP POP JUMP JUMPDEST PUSH2 0x3055 DUP2 PUSH2 0x39B9 JUMP JUMPDEST DUP3 MSTORE POP POP JUMP JUMPDEST PUSH2 0x3064 DUP2 PUSH2 0x39CB JUMP JUMPDEST DUP3 MSTORE POP POP JUMP JUMPDEST PUSH1 0x0 PUSH2 0x3075 DUP3 PUSH2 0x3887 JUMP JUMPDEST PUSH2 0x307F DUP2 DUP6 PUSH2 0x389D JUMP JUMPDEST SWAP4 POP PUSH2 0x308F DUP2 DUP6 PUSH1 0x20 DUP7 ADD PUSH2 0x3A3C JUMP JUMPDEST PUSH2 0x3098 DUP2 PUSH2 0x3BA8 JUMP JUMPDEST DUP5 ADD SWAP2 POP POP SWAP3 SWAP2 POP POP JUMP JUMPDEST PUSH1 0x0 PUSH2 0x30AE DUP3 PUSH2 0x3892 JUMP JUMPDEST PUSH2 0x30B8 DUP2 DUP6 PUSH2 0x38B9 JUMP JUMPDEST SWAP4 POP PUSH2 0x30C8 DUP2 DUP6 PUSH1 0x20 DUP7 ADD PUSH2 0x3A3C JUMP JUMPDEST PUSH2 0x30D1 DUP2 PUSH2 0x3BA8 JUMP JUMPDEST DUP5 ADD SWAP2 POP POP SWAP3 SWAP2 POP POP JUMP JUMPDEST PUSH1 0x0 PUSH2 0x30E7 DUP3 PUSH2 0x3892 JUMP JUMPDEST PUSH2 0x30F1 DUP2 DUP6 PUSH2 0x38CA JUMP JUMPDEST SWAP4 POP PUSH2 0x3101 DUP2 DUP6 PUSH1 0x20 DUP7 ADD PUSH2 0x3A3C JUMP JUMPDEST DUP1 DUP5 ADD SWAP2 POP POP SWAP3 SWAP2 POP POP JUMP JUMPDEST PUSH1 0x0 PUSH2 0x311A PUSH1 0x2A DUP4 PUSH2 0x38B9 JUMP JUMPDEST SWAP2 POP PUSH2 0x3125 DUP3 PUSH2 0x3BB9 JUMP JUMPDEST PUSH1 0x40 DUP3 ADD SWAP1 POP SWAP2 SWAP1 POP JUMP JUMPDEST PUSH1 0x0 PUSH2 0x313D PUSH1 0x1 DUP4 PUSH2 0x38CA JUMP JUMPDEST SWAP2 POP PUSH2 0x3148 DUP3 PUSH2 0x3C08 JUMP JUMPDEST PUSH1 0x1 DUP3 ADD SWAP1 POP SWAP2 SWAP1 POP JUMP JUMPDEST PUSH1 0x0 PUSH2 0x3160 PUSH1 0x2B DUP4 PUSH2 0x38B9 JUMP JUMPDEST SWAP2 POP PUSH2 0x316B DUP3 PUSH2 0x3C31 JUMP JUMPDEST PUSH1 0x40 DUP3 ADD SWAP1 POP SWAP2 SWAP1 POP JUMP JUMPDEST PUSH1 0x0 PUSH2 0x3183 PUSH1 0x32 DUP4 PUSH2 0x38B9 JUMP JUMPDEST SWAP2 POP PUSH2 0x318E DUP3 PUSH2 0x3C80 JUMP JUMPDEST PUSH1 0x40 DUP3 ADD SWAP1 POP SWAP2 SWAP1 POP JUMP JUMPDEST PUSH1 0x0 PUSH2 0x31A6 PUSH1 0x26 DUP4 PUSH2 0x38B9 JUMP JUMPDEST SWAP2 POP PUSH2 0x31B1 DUP3 PUSH2 0x3CCF JUMP JUMPDEST PUSH1 0x40 DUP3 ADD SWAP1 POP SWAP2 SWAP1 POP JUMP JUMPDEST PUSH1 0x0 PUSH2 0x31C9 PUSH1 0x25 DUP4 PUSH2 0x38B9 JUMP JUMPDEST SWAP2 POP PUSH2 0x31D4 DUP3 PUSH2 0x3D1E JUMP JUMPDEST PUSH1 0x40 DUP3 ADD SWAP1 POP SWAP2 SWAP1 POP JUMP JUMPDEST PUSH1 0x0 PUSH2 0x31EC PUSH1 0x1C DUP4 PUSH2 0x38B9 JUMP JUMPDEST SWAP2 POP PUSH2 0x31F7 DUP3 PUSH2 0x3D6D JUMP JUMPDEST PUSH1 0x20 DUP3 ADD SWAP1 POP SWAP2 SWAP1 POP JUMP JUMPDEST PUSH1 0x0 PUSH2 0x320F PUSH1 0x21 DUP4 PUSH2 0x38B9 JUMP JUMPDEST SWAP2 POP PUSH2 0x321A DUP3 PUSH2 0x3D96 JUMP JUMPDEST PUSH1 0x40 DUP3 ADD SWAP1 POP SWAP2 SWAP1 POP JUMP JUMPDEST PUSH1 0x0 PUSH2 0x3232 PUSH1 0x24 DUP4 PUSH2 0x38B9 JUMP JUMPDEST SWAP2 POP PUSH2 0x323D DUP3 PUSH2 0x3DE5 JUMP JUMPDEST PUSH1 0x40 DUP3 ADD SWAP1 POP SWAP2 SWAP1 POP JUMP JUMPDEST PUSH1 0x0 PUSH2 0x3255 PUSH1 0x19 DUP4 PUSH2 0x38B9 JUMP JUMPDEST SWAP2 POP PUSH2 0x3260 DUP3 PUSH2 0x3E34 JUMP JUMPDEST PUSH1 0x20 DUP3 ADD SWAP1 POP SWAP2 SWAP1 POP JUMP JUMPDEST PUSH1 0x0 PUSH2 0x3278 PUSH1 0x2C DUP4 PUSH2 0x38B9 JUMP JUMPDEST SWAP2 POP PUSH2 0x3283 DUP3 PUSH2 0x3E5D JUMP JUMPDEST PUSH1 0x40 DUP3 ADD SWAP1 POP SWAP2 SWAP1 POP JUMP JUMPDEST PUSH1 0x0 PUSH2 0x329B PUSH1 0x38 DUP4 PUSH2 0x38B9 JUMP JUMPDEST SWAP2 POP PUSH2 0x32A6 DUP3 PUSH2 0x3EAC JUMP JUMPDEST PUSH1 0x40 DUP3 ADD SWAP1 POP SWAP2 SWAP1 POP JUMP JUMPDEST PUSH1 0x0 PUSH2 0x32BE PUSH1 0x2A DUP4 PUSH2 0x38B9 JUMP JUMPDEST SWAP2 POP PUSH2 0x32C9 DUP3 PUSH2 0x3EFB JUMP JUMPDEST PUSH1 0x40 DUP3 ADD SWAP1 POP SWAP2 SWAP1 POP JUMP JUMPDEST PUSH1 0x0 PUSH2 0x32E1 PUSH1 0x29 DUP4 PUSH2 0x38B9 JUMP JUMPDEST SWAP2 POP PUSH2 0x32EC DUP3 PUSH2 0x3F4A JUMP JUMPDEST PUSH1 0x40 DUP3 ADD SWAP1 POP SWAP2 SWAP1 POP JUMP JUMPDEST PUSH1 0x0 PUSH2 0x3304 PUSH1 0x2A DUP4 PUSH2 0x38B9 JUMP JUMPDEST SWAP2 POP PUSH2 0x330F DUP3 PUSH2 0x3F99 JUMP JUMPDEST PUSH1 0x40 DUP3 ADD SWAP1 POP SWAP2 SWAP1 POP JUMP JUMPDEST PUSH1 0x0 PUSH2 0x3327 PUSH1 0x20 DUP4 PUSH2 0x38B9 JUMP JUMPDEST SWAP2 POP PUSH2 0x3332 DUP3 PUSH2 0x3FE8 JUMP JUMPDEST PUSH1 0x20 DUP3 ADD SWAP1 POP SWAP2 SWAP1 POP JUMP JUMPDEST PUSH1 0x0 PUSH2 0x334A PUSH1 0x2C DUP4 PUSH2 0x38B9 JUMP JUMPDEST SWAP2 POP PUSH2 0x3355 DUP3 PUSH2 0x4011 JUMP JUMPDEST PUSH1 0x40 DUP3 ADD SWAP1 POP SWAP2 SWAP1 POP JUMP JUMPDEST PUSH1 0x0 PUSH2 0x336D PUSH1 0x20 DUP4 PUSH2 0x38B9 JUMP JUMPDEST SWAP2 POP PUSH2 0x3378 DUP3 PUSH2 0x4060 JUMP JUMPDEST PUSH1 0x20 DUP3 ADD SWAP1 POP SWAP2 SWAP1 POP JUMP JUMPDEST PUSH1 0x0 PUSH2 0x3390 PUSH1 0x2F DUP4 PUSH2 0x38B9 JUMP JUMPDEST SWAP2 POP PUSH2 0x339B DUP3 PUSH2 0x4089 JUMP JUMPDEST PUSH1 0x40 DUP3 ADD SWAP1 POP SWAP2 SWAP1 POP JUMP JUMPDEST PUSH1 0x0 PUSH2 0x33B3 PUSH1 0x21 DUP4 PUSH2 0x38B9 JUMP JUMPDEST SWAP2 POP PUSH2 0x33BE DUP3 PUSH2 0x40D8 JUMP JUMPDEST PUSH1 0x40 DUP3 ADD SWAP1 POP SWAP2 SWAP1 POP JUMP JUMPDEST PUSH1 0x0 PUSH2 0x33D6 PUSH1 0x0 DUP4 PUSH2 0x38AE JUMP JUMPDEST SWAP2 POP PUSH2 0x33E1 DUP3 PUSH2 0x4127 JUMP JUMPDEST PUSH1 0x0 DUP3 ADD SWAP1 POP SWAP2 SWAP1 POP JUMP JUMPDEST PUSH1 0x0 PUSH2 0x33F9 PUSH1 0x31 DUP4 PUSH2 0x38B9 JUMP JUMPDEST SWAP2 POP PUSH2 0x3404 DUP3 PUSH2 0x412A JUMP JUMPDEST PUSH1 0x40 DUP3 ADD SWAP1 POP SWAP2 SWAP1 POP JUMP JUMPDEST PUSH1 0x0 PUSH2 0x341C PUSH1 0x2C DUP4 PUSH2 0x38B9 JUMP JUMPDEST SWAP2 POP PUSH2 0x3427 DUP3 PUSH2 0x4179 JUMP JUMPDEST PUSH1 0x40 DUP3 ADD SWAP1 POP SWAP2 SWAP1 POP JUMP JUMPDEST PUSH2 0x343B DUP2 PUSH2 0x3A23 JUMP JUMPDEST DUP3 MSTORE POP POP JUMP JUMPDEST PUSH1 0x0 PUSH2 0x344D DUP3 DUP5 PUSH2 0x30DC JUMP JUMPDEST SWAP2 POP PUSH2 0x3458 DUP3 PUSH2 0x3130 JUMP JUMPDEST SWAP2 POP DUP2 SWAP1 POP SWAP3 SWAP2 POP POP JUMP JUMPDEST PUSH1 0x0 PUSH2 0x346E DUP3 PUSH2 0x33C9 JUMP JUMPDEST SWAP2 POP DUP2 SWAP1 POP SWAP2 SWAP1 POP JUMP JUMPDEST PUSH1 0x0 PUSH1 0x20 DUP3 ADD SWAP1 POP PUSH2 0x348D PUSH1 0x0 DUP4 ADD DUP5 PUSH2 0x304C JUMP JUMPDEST SWAP3 SWAP2 POP POP JUMP JUMPDEST PUSH1 0x0 PUSH1 0x80 DUP3 ADD SWAP1 POP PUSH2 0x34A8 PUSH1 0x0 DUP4 ADD DUP8 PUSH2 0x304C JUMP JUMPDEST PUSH2 0x34B5 PUSH1 0x20 DUP4 ADD DUP7 PUSH2 0x304C JUMP JUMPDEST PUSH2 0x34C2 PUSH1 0x40 DUP4 ADD DUP6 PUSH2 0x3432 JUMP JUMPDEST DUP2 DUP2 SUB PUSH1 0x60 DUP4 ADD MSTORE PUSH2 0x34D4 DUP2 DUP5 PUSH2 0x306A JUMP JUMPDEST SWAP1 POP SWAP6 SWAP5 POP POP POP POP POP JUMP JUMPDEST PUSH1 0x0 PUSH1 0x20 DUP3 ADD SWAP1 POP PUSH2 0x34F4 PUSH1 0x0 DUP4 ADD DUP5 PUSH2 0x305B JUMP JUMPDEST SWAP3 SWAP2 POP POP JUMP JUMPDEST PUSH1 0x0 PUSH1 0x20 DUP3 ADD SWAP1 POP DUP2 DUP2 SUB PUSH1 0x0 DUP4 ADD MSTORE PUSH2 0x3514 DUP2 DUP5 PUSH2 0x30A3 JUMP JUMPDEST SWAP1 POP SWAP3 SWAP2 POP POP JUMP JUMPDEST PUSH1 0x0 PUSH1 0x20 DUP3 ADD SWAP1 POP DUP2 DUP2 SUB PUSH1 0x0 DUP4 ADD MSTORE PUSH2 0x3535 DUP2 PUSH2 0x310D JUMP JUMPDEST SWAP1 POP SWAP2 SWAP1 POP JUMP JUMPDEST PUSH1 0x0 PUSH1 0x20 DUP3 ADD SWAP1 POP DUP2 DUP2 SUB PUSH1 0x0 DUP4 ADD MSTORE PUSH2 0x3555 DUP2 PUSH2 0x3153 JUMP JUMPDEST SWAP1 POP SWAP2 SWAP1 POP JUMP JUMPDEST PUSH1 0x0 PUSH1 0x20 DUP3 ADD SWAP1 POP DUP2 DUP2 SUB PUSH1 0x0 DUP4 ADD MSTORE PUSH2 0x3575 DUP2 PUSH2 0x3176 JUMP JUMPDEST SWAP1 POP SWAP2 SWAP1 POP JUMP JUMPDEST PUSH1 0x0 PUSH1 0x20 DUP3 ADD SWAP1 POP DUP2 DUP2 SUB PUSH1 0x0 DUP4 ADD MSTORE PUSH2 0x3595 DUP2 PUSH2 0x3199 JUMP JUMPDEST SWAP1 POP SWAP2 SWAP1 POP JUMP JUMPDEST PUSH1 0x0 PUSH1 0x20 DUP3 ADD SWAP1 POP DUP2 DUP2 SUB PUSH1 0x0 DUP4 ADD MSTORE PUSH2 0x35B5 DUP2 PUSH2 0x31BC JUMP JUMPDEST SWAP1 POP SWAP2 SWAP1 POP JUMP JUMPDEST PUSH1 0x0 PUSH1 0x20 DUP3 ADD SWAP1 POP DUP2 DUP2 SUB PUSH1 0x0 DUP4 ADD MSTORE PUSH2 0x35D5 DUP2 PUSH2 0x31DF JUMP JUMPDEST SWAP1 POP SWAP2 SWAP1 POP JUMP JUMPDEST PUSH1 0x0 PUSH1 0x20 DUP3 ADD SWAP1 POP DUP2 DUP2 SUB PUSH1 0x0 DUP4 ADD MSTORE PUSH2 0x35F5 DUP2 PUSH2 0x3202 JUMP JUMPDEST SWAP1 POP SWAP2 SWAP1 POP JUMP JUMPDEST PUSH1 0x0 PUSH1 0x20 DUP3 ADD SWAP1 POP DUP2 DUP2 SUB PUSH1 0x0 DUP4 ADD MSTORE PUSH2 0x3615 DUP2 PUSH2 0x3225 JUMP JUMPDEST SWAP1 POP SWAP2 SWAP1 POP JUMP JUMPDEST PUSH1 0x0 PUSH1 0x20 DUP3 ADD SWAP1 POP DUP2 DUP2 SUB PUSH1 0x0 DUP4 ADD MSTORE PUSH2 0x3635 DUP2 PUSH2 0x3248 JUMP JUMPDEST SWAP1 POP SWAP2 SWAP1 POP JUMP JUMPDEST PUSH1 0x0 PUSH1 0x20 DUP3 ADD SWAP1 POP DUP2 DUP2 SUB PUSH1 0x0 DUP4 ADD MSTORE PUSH2 0x3655 DUP2 PUSH2 0x326B JUMP JUMPDEST SWAP1 POP SWAP2 SWAP1 POP JUMP JUMPDEST PUSH1 0x0 PUSH1 0x20 DUP3 ADD SWAP1 POP DUP2 DUP2 SUB PUSH1 0x0 DUP4 ADD MSTORE PUSH2 0x3675 DUP2 PUSH2 0x328E JUMP JUMPDEST SWAP1 POP SWAP2 SWAP1 POP JUMP JUMPDEST PUSH1 0x0 PUSH1 0x20 DUP3 ADD SWAP1 POP DUP2 DUP2 SUB PUSH1 0x0 DUP4 ADD MSTORE PUSH2 0x3695 DUP2 PUSH2 0x32B1 JUMP JUMPDEST SWAP1 POP SWAP2 SWAP1 POP JUMP JUMPDEST PUSH1 0x0 PUSH1 0x20 DUP3 ADD SWAP1 POP DUP2 DUP2 SUB PUSH1 0x0 DUP4 ADD MSTORE PUSH2 0x36B5 DUP2 PUSH2 0x32D4 JUMP JUMPDEST SWAP1 POP SWAP2 SWAP1 POP JUMP JUMPDEST PUSH1 0x0 PUSH1 0x20 DUP3 ADD SWAP1 POP DUP2 DUP2 SUB PUSH1 0x0 DUP4 ADD MSTORE PUSH2 0x36D5 DUP2 PUSH2 0x32F7 JUMP JUMPDEST SWAP1 POP SWAP2 SWAP1 POP JUMP JUMPDEST PUSH1 0x0 PUSH1 0x20 DUP3 ADD SWAP1 POP DUP2 DUP2 SUB PUSH1 0x0 DUP4 ADD MSTORE PUSH2 0x36F5 DUP2 PUSH2 0x331A JUMP JUMPDEST SWAP1 POP SWAP2 SWAP1 POP JUMP JUMPDEST PUSH1 0x0 PUSH1 0x20 DUP3 ADD SWAP1 POP DUP2 DUP2 SUB PUSH1 0x0 DUP4 ADD MSTORE PUSH2 0x3715 DUP2 PUSH2 0x333D JUMP JUMPDEST SWAP1 POP SWAP2 SWAP1 POP JUMP JUMPDEST PUSH1 0x0 PUSH1 0x20 DUP3 ADD SWAP1 POP DUP2 DUP2 SUB PUSH1 0x0 DUP4 ADD MSTORE PUSH2 0x3735 DUP2 PUSH2 0x3360 JUMP JUMPDEST SWAP1 POP SWAP2 SWAP1 POP JUMP JUMPDEST PUSH1 0x0 PUSH1 0x20 DUP3 ADD SWAP1 POP DUP2 DUP2 SUB PUSH1 0x0 DUP4 ADD MSTORE PUSH2 0x3755 DUP2 PUSH2 0x3383 JUMP JUMPDEST SWAP1 POP SWAP2 SWAP1 POP JUMP JUMPDEST PUSH1 0x0 PUSH1 0x20 DUP3 ADD SWAP1 POP DUP2 DUP2 SUB PUSH1 0x0 DUP4 ADD MSTORE PUSH2 0x3775 DUP2 PUSH2 0x33A6 JUMP JUMPDEST SWAP1 POP SWAP2 SWAP1 POP JUMP JUMPDEST PUSH1 0x0 PUSH1 0x20 DUP3 ADD SWAP1 POP DUP2 DUP2 SUB PUSH1 0x0 DUP4 ADD MSTORE PUSH2 0x3795 DUP2 PUSH2 0x33EC JUMP JUMPDEST SWAP1 POP SWAP2 SWAP1 POP JUMP JUMPDEST PUSH1 0x0 PUSH1 0x20 DUP3 ADD SWAP1 POP DUP2 DUP2 SUB PUSH1 0x0 DUP4 ADD MSTORE PUSH2 0x37B5 DUP2 PUSH2 0x340F JUMP JUMPDEST SWAP1 POP SWAP2 SWAP1 POP JUMP JUMPDEST PUSH1 0x0 PUSH1 0x20 DUP3 ADD SWAP1 POP PUSH2 0x37D1 PUSH1 0x0 DUP4 ADD DUP5 PUSH2 0x3432 JUMP JUMPDEST SWAP3 SWAP2 POP POP JUMP JUMPDEST PUSH1 0x0 PUSH1 0x40 DUP3 ADD SWAP1 POP PUSH2 0x37EC PUSH1 0x0 DUP4 ADD DUP6 PUSH2 0x3432 JUMP JUMPDEST PUSH2 0x37F9 PUSH1 0x20 DUP4 ADD DUP5 PUSH2 0x304C JUMP JUMPDEST SWAP4 SWAP3 POP POP POP JUMP JUMPDEST PUSH1 0x0 PUSH2 0x380A PUSH2 0x381B JUMP JUMPDEST SWAP1 POP PUSH2 0x3816 DUP3 DUP3 PUSH2 0x3AA1 JUMP JUMPDEST SWAP2 SWAP1 POP JUMP JUMPDEST PUSH1 0x0 PUSH1 0x40 MLOAD SWAP1 POP SWAP1 JUMP JUMPDEST PUSH1 0x0 PUSH8 0xFFFFFFFFFFFFFFFF DUP3 GT ISZERO PUSH2 0x3840 JUMPI PUSH2 0x383F PUSH2 0x3B79 JUMP JUMPDEST JUMPDEST PUSH2 0x3849 DUP3 PUSH2 0x3BA8 JUMP JUMPDEST SWAP1 POP PUSH1 0x20 DUP2 ADD SWAP1 POP SWAP2 SWAP1 POP JUMP JUMPDEST PUSH1 0x0 PUSH8 0xFFFFFFFFFFFFFFFF DUP3 GT ISZERO PUSH2 0x3871 JUMPI PUSH2 0x3870 PUSH2 0x3B79 JUMP JUMPDEST JUMPDEST PUSH2 0x387A DUP3 PUSH2 0x3BA8 JUMP JUMPDEST SWAP1 POP PUSH1 0x20 DUP2 ADD SWAP1 POP SWAP2 SWAP1 POP JUMP JUMPDEST PUSH1 0x0 DUP2 MLOAD SWAP1 POP SWAP2 SWAP1 POP JUMP JUMPDEST PUSH1 0x0 DUP2 MLOAD SWAP1 POP SWAP2 SWAP1 POP JUMP JUMPDEST PUSH1 0x0 DUP3 DUP3 MSTORE PUSH1 0x20 DUP3 ADD SWAP1 POP SWAP3 SWAP2 POP POP JUMP JUMPDEST PUSH1 0x0 DUP2 SWAP1 POP SWAP3 SWAP2 POP POP JUMP JUMPDEST PUSH1 0x0 DUP3 DUP3 MSTORE PUSH1 0x20 DUP3 ADD SWAP1 POP SWAP3 SWAP2 POP POP JUMP JUMPDEST PUSH1 0x0 DUP2 SWAP1 POP SWAP3 SWAP2 POP POP JUMP JUMPDEST PUSH1 0x0 PUSH2 0x38E0 DUP3 PUSH2 0x3A23 JUMP JUMPDEST SWAP2 POP PUSH2 0x38EB DUP4 PUSH2 0x3A23 JUMP JUMPDEST SWAP3 POP DUP3 PUSH32 0xFFFFFFFFFFFFFFFFFFFFFFFFFFFFFFFFFFFFFFFFFFFFFFFFFFFFFFFFFFFFFFFF SUB DUP3 GT ISZERO PUSH2 0x3920 JUMPI PUSH2 0x391F PUSH2 0x3B1B JUMP JUMPDEST JUMPDEST DUP3 DUP3 ADD SWAP1 POP SWAP3 SWAP2 POP POP JUMP JUMPDEST PUSH1 0x0 PUSH2 0x3936 DUP3 PUSH2 0x3A23 JUMP JUMPDEST SWAP2 POP PUSH2 0x3941 DUP4 PUSH2 0x3A23 JUMP JUMPDEST SWAP3 POP DUP2 PUSH32 0xFFFFFFFFFFFFFFFFFFFFFFFFFFFFFFFFFFFFFFFFFFFFFFFFFFFFFFFFFFFFFFFF DIV DUP4 GT DUP3 ISZERO ISZERO AND ISZERO PUSH2 0x397A JUMPI PUSH2 0x3979 PUSH2 0x3B1B JUMP JUMPDEST JUMPDEST DUP3 DUP3 MUL SWAP1 POP SWAP3 SWAP2 POP POP JUMP JUMPDEST PUSH1 0x0 PUSH2 0x3990 DUP3 PUSH2 0x3A23 JUMP JUMPDEST SWAP2 POP PUSH2 0x399B DUP4 PUSH2 0x3A23 JUMP JUMPDEST SWAP3 POP DUP3 DUP3 LT ISZERO PUSH2 0x39AE JUMPI PUSH2 0x39AD PUSH2 0x3B1B JUMP JUMPDEST JUMPDEST DUP3 DUP3 SUB SWAP1 POP SWAP3 SWAP2 POP POP JUMP JUMPDEST PUSH1 0x0 PUSH2 0x39C4 DUP3 PUSH2 0x3A03 JUMP JUMPDEST SWAP1 POP SWAP2 SWAP1 POP JUMP JUMPDEST PUSH1 0x0 DUP2 ISZERO ISZERO SWAP1 POP SWAP2 SWAP1 POP JUMP JUMPDEST PUSH1 0x0 PUSH32 0xFFFFFFFF00000000000000000000000000000000000000000000000000000000 DUP3 AND SWAP1 POP SWAP2 SWAP1 POP JUMP JUMPDEST PUSH1 0x0 PUSH20 0xFFFFFFFFFFFFFFFFFFFFFFFFFFFFFFFFFFFFFFFF DUP3 AND SWAP1 POP SWAP2 SWAP1 POP JUMP JUMPDEST PUSH1 0x0 DUP2 SWAP1 POP SWAP2 SWAP1 POP JUMP JUMPDEST DUP3 DUP2 DUP4 CALLDATACOPY PUSH1 0x0 DUP4 DUP4 ADD MSTORE POP POP POP JUMP JUMPDEST PUSH1 0x0 JUMPDEST DUP4 DUP2 LT ISZERO PUSH2 0x3A5A JUMPI DUP1 DUP3 ADD MLOAD DUP2 DUP5 ADD MSTORE PUSH1 0x20 DUP2 ADD SWAP1 POP PUSH2 0x3A3F JUMP JUMPDEST DUP4 DUP2 GT ISZERO PUSH2 0x3A69 JUMPI PUSH1 0x0 DUP5 DUP5 ADD MSTORE JUMPDEST POP POP POP POP JUMP JUMPDEST PUSH1 0x0 PUSH1 0x2 DUP3 DIV SWAP1 POP PUSH1 0x1 DUP3 AND DUP1 PUSH2 0x3A87 JUMPI PUSH1 0x7F DUP3 AND SWAP2 POP JUMPDEST PUSH1 0x20 DUP3 LT DUP2 EQ ISZERO PUSH2 0x3A9B JUMPI PUSH2 0x3A9A PUSH2 0x3B4A JUMP JUMPDEST JUMPDEST POP SWAP2 SWAP1 POP JUMP JUMPDEST PUSH2 0x3AAA DUP3 PUSH2 0x3BA8 JUMP JUMPDEST DUP2 ADD DUP2 DUP2 LT PUSH8 0xFFFFFFFFFFFFFFFF DUP3 GT OR ISZERO PUSH2 0x3AC9 JUMPI PUSH2 0x3AC8 PUSH2 0x3B79 JUMP JUMPDEST JUMPDEST DUP1 PUSH1 0x40 MSTORE POP POP POP JUMP JUMPDEST PUSH1 0x0 PUSH2 0x3ADD DUP3 PUSH2 0x3A23 JUMP JUMPDEST SWAP2 POP PUSH32 0xFFFFFFFFFFFFFFFFFFFFFFFFFFFFFFFFFFFFFFFFFFFFFFFFFFFFFFFFFFFFFFFF DUP3 EQ ISZERO PUSH2 0x3B10 JUMPI PUSH2 0x3B0F PUSH2 0x3B1B JUMP JUMPDEST JUMPDEST PUSH1 0x1 DUP3 ADD SWAP1 POP SWAP2 SWAP1 POP JUMP JUMPDEST PUSH32 0x4E487B7100000000000000000000000000000000000000000000000000000000 PUSH1 0x0 MSTORE PUSH1 0x11 PUSH1 0x4 MSTORE PUSH1 0x24 PUSH1 0x0 REVERT JUMPDEST PUSH32 0x4E487B7100000000000000000000000000000000000000000000000000000000 PUSH1 0x0 MSTORE PUSH1 0x22 PUSH1 0x4 MSTORE PUSH1 0x24 PUSH1 0x0 REVERT JUMPDEST PUSH32 0x4E487B7100000000000000000000000000000000000000000000000000000000 PUSH1 0x0 MSTORE PUSH1 0x41 PUSH1 0x4 MSTORE PUSH1 0x24 PUSH1 0x0 REVERT JUMPDEST PUSH1 0x0 PUSH1 0x1F NOT PUSH1 0x1F DUP4 ADD AND SWAP1 POP SWAP2 SWAP1 POP JUMP JUMPDEST PUSH32 0x43616E206F6E6C79206D696E74206F6E65206F72206D6F726520746F6B656E73 PUSH1 0x0 DUP3 ADD MSTORE PUSH32 0x20617420612074696D6500000000000000000000000000000000000000000000 PUSH1 0x20 DUP3 ADD MSTORE POP JUMP JUMPDEST PUSH32 0x3000000000000000000000000000000000000000000000000000000000000000 PUSH1 0x0 DUP3 ADD MSTORE POP JUMP JUMPDEST PUSH32 0x455243373231456E756D657261626C653A206F776E657220696E646578206F75 PUSH1 0x0 DUP3 ADD MSTORE PUSH32 0x74206F6620626F756E6473000000000000000000000000000000000000000000 PUSH1 0x20 DUP3 ADD MSTORE POP JUMP JUMPDEST PUSH32 0x4552433732313A207472616E7366657220746F206E6F6E204552433732315265 PUSH1 0x0 DUP3 ADD MSTORE PUSH32 0x63656976657220696D706C656D656E7465720000000000000000000000000000 PUSH1 0x20 DUP3 ADD MSTORE POP JUMP JUMPDEST PUSH32 0x4F776E61626C653A206E6577206F776E657220697320746865207A65726F2061 PUSH1 0x0 DUP3 ADD MSTORE PUSH32 0x6464726573730000000000000000000000000000000000000000000000000000 PUSH1 0x20 DUP3 ADD MSTORE POP JUMP JUMPDEST PUSH32 0x4552433732313A207472616E736665722066726F6D20696E636F727265637420 PUSH1 0x0 DUP3 ADD MSTORE PUSH32 0x6F776E6572000000000000000000000000000000000000000000000000000000 PUSH1 0x20 DUP3 ADD MSTORE POP JUMP JUMPDEST PUSH32 0x4552433732313A20746F6B656E20616C7265616479206D696E74656400000000 PUSH1 0x0 DUP3 ADD MSTORE POP JUMP JUMPDEST PUSH32 0x53616C65206D7573742062652061637469766520746F206D696E7420546F6B65 PUSH1 0x0 DUP3 ADD MSTORE PUSH32 0x6E00000000000000000000000000000000000000000000000000000000000000 PUSH1 0x20 DUP3 ADD MSTORE POP JUMP JUMPDEST PUSH32 0x4552433732313A207472616E7366657220746F20746865207A65726F20616464 PUSH1 0x0 DUP3 ADD MSTORE PUSH32 0x7265737300000000000000000000000000000000000000000000000000000000 PUSH1 0x20 DUP3 ADD MSTORE POP JUMP JUMPDEST PUSH32 0x4552433732313A20617070726F766520746F2063616C6C657200000000000000 PUSH1 0x0 DUP3 ADD MSTORE POP JUMP JUMPDEST PUSH32 0x4552433732313A206F70657261746F7220717565727920666F72206E6F6E6578 PUSH1 0x0 DUP3 ADD MSTORE PUSH32 0x697374656E7420746F6B656E0000000000000000000000000000000000000000 PUSH1 0x20 DUP3 ADD MSTORE POP JUMP JUMPDEST PUSH32 0x4552433732313A20617070726F76652063616C6C6572206973206E6F74206F77 PUSH1 0x0 DUP3 ADD MSTORE PUSH32 0x6E6572206E6F7220617070726F76656420666F7220616C6C0000000000000000 PUSH1 0x20 DUP3 ADD MSTORE POP JUMP JUMPDEST PUSH32 0x4552433732313A2062616C616E636520717565727920666F7220746865207A65 PUSH1 0x0 DUP3 ADD MSTORE PUSH32 0x726F206164647265737300000000000000000000000000000000000000000000 PUSH1 0x20 DUP3 ADD MSTORE POP JUMP JUMPDEST PUSH32 0x4552433732313A206F776E657220717565727920666F72206E6F6E6578697374 PUSH1 0x0 DUP3 ADD MSTORE PUSH32 0x656E7420746F6B656E0000000000000000000000000000000000000000000000 PUSH1 0x20 DUP3 ADD MSTORE POP JUMP JUMPDEST PUSH32 0x507572636861736520776F756C6420657863656564206D617820737570706C79 PUSH1 0x0 DUP3 ADD MSTORE PUSH32 0x206F6620746F6B656E7300000000000000000000000000000000000000000000 PUSH1 0x20 DUP3 ADD MSTORE POP JUMP JUMPDEST PUSH32 0x4552433732313A206D696E7420746F20746865207A65726F2061646472657373 PUSH1 0x0 DUP3 ADD MSTORE POP JUMP JUMPDEST PUSH32 0x4552433732313A20617070726F76656420717565727920666F72206E6F6E6578 PUSH1 0x0 DUP3 ADD MSTORE PUSH32 0x697374656E7420746F6B656E0000000000000000000000000000000000000000 PUSH1 0x20 DUP3 ADD MSTORE POP JUMP JUMPDEST PUSH32 0x4F776E61626C653A2063616C6C6572206973206E6F7420746865206F776E6572 PUSH1 0x0 DUP3 ADD MSTORE POP JUMP JUMPDEST PUSH32 0x4552433732314D657461646174613A2055524920717565727920666F72206E6F PUSH1 0x0 DUP3 ADD MSTORE PUSH32 0x6E6578697374656E7420746F6B656E0000000000000000000000000000000000 PUSH1 0x20 DUP3 ADD MSTORE POP JUMP JUMPDEST PUSH32 0x4552433732313A20617070726F76616C20746F2063757272656E74206F776E65 PUSH1 0x0 DUP3 ADD MSTORE PUSH32 0x7200000000000000000000000000000000000000000000000000000000000000 PUSH1 0x20 DUP3 ADD MSTORE POP JUMP JUMPDEST POP JUMP JUMPDEST PUSH32 0x4552433732313A207472616E736665722063616C6C6572206973206E6F74206F PUSH1 0x0 DUP3 ADD MSTORE PUSH32 0x776E6572206E6F7220617070726F766564000000000000000000000000000000 PUSH1 0x20 DUP3 ADD MSTORE POP JUMP JUMPDEST PUSH32 0x455243373231456E756D657261626C653A20676C6F62616C20696E646578206F PUSH1 0x0 DUP3 ADD MSTORE PUSH32 0x7574206F6620626F756E64730000000000000000000000000000000000000000 PUSH1 0x20 DUP3 ADD MSTORE POP JUMP JUMPDEST PUSH2 0x41D1 DUP2 PUSH2 0x39B9 JUMP JUMPDEST DUP2 EQ PUSH2 0x41DC JUMPI PUSH1 0x0 DUP1 REVERT JUMPDEST POP JUMP JUMPDEST PUSH2 0x41E8 DUP2 PUSH2 0x39CB JUMP JUMPDEST DUP2 EQ PUSH2 0x41F3 JUMPI PUSH1 0x0 DUP1 REVERT JUMPDEST POP JUMP JUMPDEST PUSH2 0x41FF DUP2 PUSH2 0x39D7 JUMP JUMPDEST DUP2 EQ PUSH2 0x420A JUMPI PUSH1 0x0 DUP1 REVERT JUMPDEST POP JUMP JUMPDEST PUSH2 0x4216 DUP2 PUSH2 0x3A23 JUMP JUMPDEST DUP2 EQ PUSH2 0x4221 JUMPI PUSH1 0x0 DUP1 REVERT JUMPDEST POP JUMP INVALID LOG2 PUSH5 0x6970667358 0x22 SLT KECCAK256 PUSH7 0xD0BE7741A33CA7 0xAD 0xAD GT 0xD4 0xBA 0xCA SELFBALANCE PUSH20 0xCCFCFDC7B4BFEDF729A3C7C072DFBB5464736F6C PUSH4 0x43000804 STOP CALLER PUSH9 0x747470733A2F2F6761 PUSH21 0x657761792E70696E6174612E636C6F75642F697066 PUSH20 0x2F516D5A48743754664E486B677268316A737674 MSTORE JUMP PUSH22 0x6E7674716666356E3153566A466F5337626269795263 PUSH10 0x792F0000000000000000 "
        },
        "methodIdentifiers": {
          "MAX_TOKENS()": "f47c84c5",
          "approve(address,uint256)": "095ea7b3",
          "balanceOf(address)": "70a08231",
          "baseURI()": "6c0360eb",
          "getApproved(uint256)": "081812fc",
          "getTokensMinted()": "d69f6bae",
          "isApprovedForAll(address,address)": "e985e9c5",
          "maxTokenPurchase()": "09aa3dcf",
          "mint()": "1249c58b",
          "mint1()": "044b4b5d",
          "mint2(uint256)": "3aa18088",
          "mint3(address,uint256)": "85d64c08",
          "name()": "06fdde03",
          "owner()": "8da5cb5b",
          "ownerOf(uint256)": "6352211e",
          "renounceOwnership()": "715018a6",
          "safeTransferFrom(address,address,uint256)": "42842e0e",
          "safeTransferFrom(address,address,uint256,bytes)": "b88d4fde",
          "saleIsActive()": "eb8d2444",
          "setApprovalForAll(address,bool)": "a22cb465",
          "setBaseURI(string)": "55f804b3",
          "setPrice(uint256)": "91b7f5ed",
          "supportsInterface(bytes4)": "01ffc9a7",
          "symbol()": "95d89b41",
          "toggleSaleState()": "daaeec86",
          "tokenByIndex(uint256)": "4f6ccce7",
          "tokenOfOwnerByIndex(address,uint256)": "2f745c59",
          "tokenPrice()": "7ff9b596",
          "tokenURI(uint256)": "c87b56dd",
          "totalSupply()": "18160ddd",
          "transferFrom(address,address,uint256)": "23b872dd",
          "transferOwnership(address)": "f2fde38b",
          "withdraw()": "3ccfd60b"
        }
      }
    }
  }
}